{
  "_format": "hh-sol-artifact-1",
  "contractName": "ProductRegistryV2",
  "sourceName": "contracts/registry/ProductRegistryV2.sol",
  "abi": [
    {
      "inputs": [],
      "name": "AlreadyExists",
      "type": "error"
    },
    {
      "inputs": [],
      "name": "EscrowExpired",
      "type": "error"
    },
    {
      "inputs": [],
      "name": "InvalidAddress",
      "type": "error"
    },
    {
      "inputs": [],
      "name": "InvalidAmount",
      "type": "error"
    },
    {
      "inputs": [],
      "name": "InvalidDeadline",
      "type": "error"
    },
    {
      "inputs": [],
      "name": "InvalidPaymentToken",
      "type": "error"
    },
    {
      "inputs": [],
      "name": "InvalidStatus",
      "type": "error"
    },
    {
      "inputs": [],
      "name": "NotEscrowParty",
      "type": "error"
    },
    {
      "inputs": [],
      "name": "NotFound",
      "type": "error"
    },
    {
      "inputs": [],
      "name": "ProductInactive",
      "type": "error"
    },
    {
      "inputs": [],
      "name": "TransferFailed",
      "type": "error"
    },
    {
      "inputs": [],
      "name": "Unauthorized",
      "type": "error"
    },
    {
      "anonymous": false,
      "inputs": [
        {
          "indexed": true,
          "internalType": "bytes32",
          "name": "escrowId",
          "type": "bytes32"
        }
      ],
      "name": "EscrowCancelled",
      "type": "event"
    },
    {
      "anonymous": false,
      "inputs": [
        {
          "indexed": true,
          "internalType": "bytes32",
          "name": "escrowId",
          "type": "bytes32"
        },
        {
          "indexed": true,
          "internalType": "address",
          "name": "seller",
          "type": "address"
        },
        {
          "indexed": false,
          "internalType": "uint256",
          "name": "amount",
          "type": "uint256"
        }
      ],
      "name": "EscrowCompleted",
      "type": "event"
    },
    {
      "anonymous": false,
      "inputs": [
        {
          "indexed": true,
          "internalType": "bytes32",
          "name": "escrowId",
          "type": "bytes32"
        },
        {
          "indexed": true,
          "internalType": "uint256",
          "name": "productId",
          "type": "uint256"
        },
        {
          "indexed": true,
          "internalType": "address",
          "name": "buyer",
          "type": "address"
        },
        {
          "indexed": false,
          "internalType": "address",
          "name": "seller",
          "type": "address"
        },
        {
          "indexed": false,
          "internalType": "address",
          "name": "paymentToken",
          "type": "address"
        },
        {
          "indexed": false,
          "internalType": "uint256",
          "name": "amount",
          "type": "uint256"
        }
      ],
      "name": "EscrowCreated",
      "type": "event"
    },
    {
      "anonymous": false,
      "inputs": [
        {
          "indexed": true,
          "internalType": "bytes32",
          "name": "escrowId",
          "type": "bytes32"
        }
      ],
      "name": "EscrowDelivered",
      "type": "event"
    },
    {
      "anonymous": false,
      "inputs": [
        {
          "indexed": true,
          "internalType": "bytes32",
          "name": "escrowId",
          "type": "bytes32"
        },
        {
          "indexed": true,
          "internalType": "address",
          "name": "raisedBy",
          "type": "address"
        },
        {
          "indexed": false,
          "internalType": "string",
          "name": "reason",
          "type": "string"
        }
      ],
      "name": "EscrowDisputed",
      "type": "event"
    },
    {
      "anonymous": false,
      "inputs": [
        {
          "indexed": true,
          "internalType": "bytes32",
          "name": "escrowId",
          "type": "bytes32"
        },
        {
          "indexed": true,
          "internalType": "address",
          "name": "payer",
          "type": "address"
        },
        {
          "indexed": false,
          "internalType": "uint256",
          "name": "amount",
          "type": "uint256"
        }
      ],
      "name": "EscrowFunded",
      "type": "event"
    },
    {
      "anonymous": false,
      "inputs": [
        {
          "indexed": true,
          "internalType": "bytes32",
          "name": "escrowId",
          "type": "bytes32"
        },
        {
          "indexed": false,
          "internalType": "uint256",
          "name": "sellerAmount",
          "type": "uint256"
        },
        {
          "indexed": false,
          "internalType": "uint256",
          "name": "buyerAmount",
          "type": "uint256"
        }
      ],
      "name": "EscrowResolved",
      "type": "event"
    },
    {
      "anonymous": false,
      "inputs": [
        {
          "indexed": true,
          "internalType": "address",
          "name": "previousOwner",
          "type": "address"
        },
        {
          "indexed": true,
          "internalType": "address",
          "name": "newOwner",
          "type": "address"
        }
      ],
      "name": "OwnerTransferred",
      "type": "event"
    },
    {
      "anonymous": false,
      "inputs": [
        {
          "indexed": true,
          "internalType": "uint256",
          "name": "productId",
          "type": "uint256"
        },
        {
          "indexed": false,
          "internalType": "string",
          "name": "externalId",
          "type": "string"
        },
        {
          "indexed": true,
          "internalType": "address",
          "name": "owner",
          "type": "address"
        },
        {
          "indexed": false,
          "internalType": "address",
          "name": "acceptedToken",
          "type": "address"
        },
        {
          "indexed": false,
          "internalType": "uint256",
          "name": "unitPrice",
          "type": "uint256"
        }
      ],
      "name": "ProductCreated",
      "type": "event"
    },
    {
      "anonymous": false,
      "inputs": [
        {
          "indexed": true,
          "internalType": "uint256",
          "name": "productId",
          "type": "uint256"
        },
        {
          "indexed": true,
          "internalType": "address",
          "name": "previousOwner",
          "type": "address"
        },
        {
          "indexed": true,
          "internalType": "address",
          "name": "newOwner",
          "type": "address"
        }
      ],
      "name": "ProductOwnershipTransferred",
      "type": "event"
    },
    {
      "anonymous": false,
      "inputs": [
        {
          "indexed": true,
          "internalType": "uint256",
          "name": "productId",
          "type": "uint256"
        },
        {
          "indexed": false,
          "internalType": "string",
          "name": "metadataHash",
          "type": "string"
        },
        {
          "indexed": false,
          "internalType": "address",
          "name": "acceptedToken",
          "type": "address"
        },
        {
          "indexed": false,
          "internalType": "uint256",
          "name": "unitPrice",
          "type": "uint256"
        },
        {
          "indexed": false,
          "internalType": "bool",
          "name": "active",
          "type": "bool"
        }
      ],
      "name": "ProductUpdated",
      "type": "event"
    },
    {
      "anonymous": false,
      "inputs": [
        {
          "indexed": true,
          "internalType": "bytes32",
          "name": "role",
          "type": "bytes32"
        },
        {
          "indexed": true,
          "internalType": "address",
          "name": "account",
          "type": "address"
        },
        {
          "indexed": false,
          "internalType": "bool",
          "name": "enabled",
          "type": "bool"
        }
      ],
      "name": "RoleUpdated",
      "type": "event"
    },
    {
      "inputs": [],
      "name": "ADMIN_ROLE",
      "outputs": [
        {
          "internalType": "bytes32",
          "name": "",
          "type": "bytes32"
        }
      ],
      "stateMutability": "view",
      "type": "function"
    },
    {
      "inputs": [],
      "name": "ARBITER_ROLE",
      "outputs": [
        {
          "internalType": "bytes32",
          "name": "",
          "type": "bytes32"
        }
      ],
      "stateMutability": "view",
      "type": "function"
    },
    {
      "inputs": [],
      "name": "SELLER_MANAGER_ROLE",
      "outputs": [
        {
          "internalType": "bytes32",
          "name": "",
          "type": "bytes32"
        }
      ],
      "stateMutability": "view",
      "type": "function"
    },
    {
      "inputs": [
        {
          "internalType": "string",
          "name": "externalId",
          "type": "string"
        },
        {
          "internalType": "string",
          "name": "metadataHash",
          "type": "string"
        },
        {
          "internalType": "address",
          "name": "acceptedToken",
          "type": "address"
        },
        {
          "internalType": "uint256",
          "name": "unitPrice",
          "type": "uint256"
        }
      ],
      "name": "createProduct",
      "outputs": [
        {
          "internalType": "uint256",
          "name": "productId",
          "type": "uint256"
        }
      ],
      "stateMutability": "nonpayable",
      "type": "function"
    },
    {
      "inputs": [
        {
          "internalType": "uint256",
          "name": "productId",
          "type": "uint256"
        }
      ],
      "name": "getProduct",
      "outputs": [
        {
          "components": [
            {
              "internalType": "uint256",
              "name": "id",
              "type": "uint256"
            },
            {
              "internalType": "string",
              "name": "externalId",
              "type": "string"
            },
            {
              "internalType": "string",
              "name": "metadataHash",
              "type": "string"
            },
            {
              "internalType": "address",
              "name": "owner",
              "type": "address"
            },
            {
              "internalType": "address",
              "name": "acceptedToken",
              "type": "address"
            },
            {
              "internalType": "uint256",
              "name": "unitPrice",
              "type": "uint256"
            },
            {
              "internalType": "bool",
              "name": "active",
              "type": "bool"
            },
            {
              "internalType": "uint256",
              "name": "createdAt",
              "type": "uint256"
            },
            {
              "internalType": "uint256",
              "name": "updatedAt",
              "type": "uint256"
            }
          ],
          "internalType": "struct ProtocolTypes.Product",
          "name": "",
          "type": "tuple"
        }
      ],
      "stateMutability": "view",
      "type": "function"
    },
    {
      "inputs": [
        {
          "internalType": "bytes32",
          "name": "role",
          "type": "bytes32"
        },
        {
          "internalType": "address",
          "name": "account",
          "type": "address"
        }
      ],
      "name": "hasRole",
      "outputs": [
        {
          "internalType": "bool",
          "name": "",
          "type": "bool"
        }
      ],
      "stateMutability": "view",
      "type": "function"
    },
    {
      "inputs": [],
      "name": "owner",
      "outputs": [
        {
          "internalType": "address",
          "name": "",
          "type": "address"
        }
      ],
      "stateMutability": "view",
      "type": "function"
    },
    {
      "inputs": [
        {
          "internalType": "uint256",
          "name": "productId",
          "type": "uint256"
        }
      ],
      "name": "productExists",
      "outputs": [
        {
          "internalType": "bool",
          "name": "",
          "type": "bool"
        }
      ],
      "stateMutability": "view",
      "type": "function"
    },
    {
      "inputs": [
        {
          "internalType": "bytes32",
          "name": "",
          "type": "bytes32"
        }
      ],
      "name": "productIdByExternalHash",
      "outputs": [
        {
          "internalType": "uint256",
          "name": "",
          "type": "uint256"
        }
      ],
      "stateMutability": "view",
      "type": "function"
    },
    {
      "inputs": [
        {
          "internalType": "bytes32",
          "name": "role",
          "type": "bytes32"
        },
        {
          "internalType": "address",
          "name": "account",
          "type": "address"
        },
        {
          "internalType": "bool",
          "name": "enabled",
          "type": "bool"
        }
      ],
      "name": "setRole",
      "outputs": [],
      "stateMutability": "nonpayable",
      "type": "function"
    },
    {
      "inputs": [
        {
          "internalType": "address",
          "name": "newOwner",
          "type": "address"
        }
      ],
      "name": "transferOwnership",
      "outputs": [],
      "stateMutability": "nonpayable",
      "type": "function"
    },
    {
      "inputs": [
        {
          "internalType": "uint256",
          "name": "productId",
          "type": "uint256"
        },
        {
          "internalType": "address",
          "name": "newOwner",
          "type": "address"
        }
      ],
      "name": "transferProductOwnership",
      "outputs": [],
      "stateMutability": "nonpayable",
      "type": "function"
    },
    {
      "inputs": [
        {
          "internalType": "uint256",
          "name": "productId",
          "type": "uint256"
        },
        {
          "internalType": "string",
          "name": "metadataHash",
          "type": "string"
        },
        {
          "internalType": "address",
          "name": "acceptedToken",
          "type": "address"
        },
        {
          "internalType": "uint256",
          "name": "unitPrice",
          "type": "uint256"
        },
        {
          "internalType": "bool",
          "name": "active",
          "type": "bool"
        }
      ],
      "name": "updateProduct",
      "outputs": [],
      "stateMutability": "nonpayable",
      "type": "function"
    }
  ],
  "bytecode": "0x6080604052600160025534801561001557600080fd5b50600080546001600160a01b0319163390811782558082527f50efbde2d46c37e9785f1791697f77e94bb7b701e19f1930a668820722d376946020526040808320805460ff19166001179055519091907f8934ce4adea8d9ce0d714d2c22b86790e41b7731c84b926fbbdc1d40ff6533c9908290a36040516001815233907fa49807205ce4d355092ef5a8a18f56e8913cf4a201fbe287825b095693c21775907f5f0ecfd1ea5555d5b4b6140b49c92365beaf40d0a057dc34a9746990cd4ce8d49060200160405180910390a36111df806100f16000396000f3fe608060405234801561001057600080fd5b50600436106100cf5760003560e01c806375b238fc1161008c57806391d148541161006657806391d14854146101f5578063af55ed6414610218578063b9db15b41461023a578063f2fde38b1461025a57600080fd5b806375b238fc1461019057806386b0e812146101b75780638da5cb5b146101ca57600080fd5b806315a4a880146100d45780634d104adf146100e957806355e994641461012357806356fc393c1461014a578063699de9141461015d5780636a9513161461017d575b600080fd5b6100e76100e2366004610c1b565b61026d565b005b6101107fbb08418a67729a078f87bbc8d02a770929bb68f5bfdf134ae2ead6ed38e2f4ae81565b6040519081526020015b60405180910390f35b6101107f2560ab6f140afee5747a211a622d03816964de9b22fcbd0828e0bd98f13a392d81565b610110610158366004610c92565b6103bc565b61011061016b366004610d1b565b60046020526000908152604090205481565b6100e761018b366004610d34565b610647565b6101107fa49807205ce4d355092ef5a8a18f56e8913cf4a201fbe287825b095693c2177581565b6100e76101c5366004610d70565b610703565b6000546101dd906001600160a01b031681565b6040516001600160a01b03909116815260200161011a565b610208610203366004610d70565b610819565b604051901515815260200161011a565b610208610226366004610d1b565b600090815260036020526040902054151590565b61024d610248366004610d1b565b610844565b60405161011a9190610de2565b6100e7610268366004610e99565b610a6f565b6000868152600360205260408120805490910361029d5760405163c5723b5160e01b815260040160405180910390fd5b60038101546001600160a01b031633148015906102e157506102df7fa49807205ce4d355092ef5a8a18f56e8913cf4a201fbe287825b095693c2177533610819565b155b156102fe576040516282b42960e81b815260040160405180910390fd5b841580610309575082155b156103275760405163162908e360e11b815260040160405180910390fd5b60028101610336868883610f5c565b506004810180546001600160a01b0319166001600160a01b0386161790556005810183905560068101805460ff191683151517905542600882015560405187907f7d57071984ab0533f200eb44000da3e4b228d8e230563dc711d90f733bb7658c906103ab9089908990899089908990611046565b60405180910390a250505050505050565b60008515806103c9575083155b156103e75760405163162908e360e11b815260040160405180910390fd5b816000036104085760405163162908e360e11b815260040160405180910390fd5b6000878760405160200161041d929190611082565b60408051601f19818403018152918152815160209283012060008181526004909352912054909150156104635760405163119b4fd360e11b815260040160405180910390fd5b6002805490600061047383611092565b91905055915060405180610120016040528083815260200189898080601f016020809104026020016040519081016040528093929190818152602001838380828437600092019190915250505090825250604080516020601f8a018190048102820181019092528881529181019190899089908190840183828082843760009201829052509385525050336020808501919091526001600160a01b038916604080860191909152606085018990526001608086018190524260a0870181905260c090960195909552878452600382529092208451815591840151919283019161055d9150826110b9565b506040820151600282019061057290826110b9565b5060608201516003820180546001600160a01b03199081166001600160a01b03938416179091556080840151600480850180549093169190931617905560a0830151600583015560c083015160068301805460ff191691151591909117905560e0830151600783015561010090920151600890910155600082815260209190915260409081902083905551339083907fe7cbcbacf3657d62d3460f84b5a21a882d424ae340c0c04777b031bebe16aaa890610634908c908c908a908a90611179565b60405180910390a3509695505050505050565b6000546001600160a01b03163314610671576040516282b42960e81b815260040160405180910390fd5b6001600160a01b0382166106985760405163e6c4247b60e01b815260040160405180910390fd5b60008381526001602090815260408083206001600160a01b03861680855290835292819020805460ff1916851515908117909155905190815285917f5f0ecfd1ea5555d5b4b6140b49c92365beaf40d0a057dc34a9746990cd4ce8d4910160405180910390a3505050565b6001600160a01b03811661072a5760405163e6c4247b60e01b815260040160405180910390fd5b6000828152600360205260408120805490910361075a5760405163c5723b5160e01b815260040160405180910390fd5b60038101546001600160a01b0316331480159061079e575061079c7f2560ab6f140afee5747a211a622d03816964de9b22fcbd0828e0bd98f13a392d33610819565b155b156107bb576040516282b42960e81b815260040160405180910390fd5b6003810180546001600160a01b038481166001600160a01b03198316811790935542600885015560405191169190829086907f4b0e9e82ed087a40d368998aacab3a2798626e8d60b60fbc6f1bbcdaf3eaa02d90600090a450505050565b60009182526001602090815260408084206001600160a01b0393909316845291905290205460ff1690565b6108a760405180610120016040528060008152602001606081526020016060815260200160006001600160a01b0316815260200160006001600160a01b031681526020016000815260200160001515815260200160008152602001600081525090565b60006003600084815260200190815260200160002060405180610120016040529081600082015481526020016001820180546108e290610ed1565b80601f016020809104026020016040519081016040528092919081815260200182805461090e90610ed1565b801561095b5780601f106109305761010080835404028352916020019161095b565b820191906000526020600020905b81548152906001019060200180831161093e57829003601f168201915b5050505050815260200160028201805461097490610ed1565b80601f01602080910402602001604051908101604052809291908181526020018280546109a090610ed1565b80156109ed5780601f106109c2576101008083540402835291602001916109ed565b820191906000526020600020905b8154815290600101906020018083116109d057829003601f168201915b505050918352505060038201546001600160a01b039081166020830152600483015416604082015260058201546060820152600682015460ff1615156080820152600782015460a082015260089091015460c0909101528051909150600003610a695760405163c5723b5160e01b815260040160405180910390fd5b92915050565b6000546001600160a01b03163314610a99576040516282b42960e81b815260040160405180910390fd5b6001600160a01b038116610ac05760405163e6c4247b60e01b815260040160405180910390fd5b600080546001600160a01b038381166001600160a01b03198316811784558084527f50efbde2d46c37e9785f1791697f77e94bb7b701e19f1930a668820722d376946020526040808520805460ff1916600117905551919092169283917f8934ce4adea8d9ce0d714d2c22b86790e41b7731c84b926fbbdc1d40ff6533c99190a3604051600181526001600160a01b038316907fa49807205ce4d355092ef5a8a18f56e8913cf4a201fbe287825b095693c21775907f5f0ecfd1ea5555d5b4b6140b49c92365beaf40d0a057dc34a9746990cd4ce8d49060200160405180910390a35050565b60008083601f840112610bb857600080fd5b50813567ffffffffffffffff811115610bd057600080fd5b602083019150836020828501011115610be857600080fd5b9250929050565b80356001600160a01b0381168114610c0657600080fd5b919050565b80358015158114610c0657600080fd5b60008060008060008060a08789031215610c3457600080fd5b86359550602087013567ffffffffffffffff811115610c5257600080fd5b610c5e89828a01610ba6565b9096509450610c71905060408801610bef565b925060608701359150610c8660808801610c0b565b90509295509295509295565b60008060008060008060808789031215610cab57600080fd5b863567ffffffffffffffff80821115610cc357600080fd5b610ccf8a838b01610ba6565b90985096506020890135915080821115610ce857600080fd5b50610cf589828a01610ba6565b9095509350610d08905060408801610bef565b9150606087013590509295509295509295565b600060208284031215610d2d57600080fd5b5035919050565b600080600060608486031215610d4957600080fd5b83359250610d5960208501610bef565b9150610d6760408501610c0b565b90509250925092565b60008060408385031215610d8357600080fd5b82359150610d9360208401610bef565b90509250929050565b6000815180845260005b81811015610dc257602081850181015186830182015201610da6565b506000602082860101526020601f19601f83011685010191505092915050565b602081528151602082015260006020830151610120806040850152610e0b610140850183610d9c565b91506040850151601f19858403016060860152610e288382610d9c565b9250506060850151610e4560808601826001600160a01b03169052565b5060808501516001600160a01b03811660a08601525060a085015160c085015260c0850151610e7860e086018215159052565b5060e085015161010085810191909152909401519390920192909252919050565b600060208284031215610eab57600080fd5b610eb482610bef565b9392505050565b634e487b7160e01b600052604160045260246000fd5b600181811c90821680610ee557607f821691505b602082108103610f0557634e487b7160e01b600052602260045260246000fd5b50919050565b601f821115610f57576000816000526020600020601f850160051c81016020861015610f345750805b601f850160051c820191505b81811015610f5357828155600101610f40565b5050505b505050565b67ffffffffffffffff831115610f7457610f74610ebb565b610f8883610f828354610ed1565b83610f0b565b6000601f841160018114610fbc5760008515610fa45750838201355b600019600387901b1c1916600186901b178355611016565b600083815260209020601f19861690835b82811015610fed5786850135825560209485019460019092019101610fcd565b508682101561100a5760001960f88860031b161c19848701351681555b505060018560011b0183555b5050505050565b81835281816020850137506000828201602090810191909152601f909101601f19169091010190565b60808152600061105a60808301878961101d565b6001600160a01b03959095166020830152506040810192909252151560609091015292915050565b8183823760009101908152919050565b6000600182016110b257634e487b7160e01b600052601160045260246000fd5b5060010190565b815167ffffffffffffffff8111156110d3576110d3610ebb565b6110e7816110e18454610ed1565b84610f0b565b602080601f83116001811461111c57600084156111045750858301515b600019600386901b1c1916600185901b178555610f53565b600085815260208120601f198616915b8281101561114b5788860151825594840194600190910190840161112c565b50858210156111695787850151600019600388901b60f8161c191681555b5050505050600190811b01905550565b60608152600061118d60608301868861101d565b6001600160a01b0394909416602083015250604001529291505056fea2646970667358221220c394592e1a76a08de568baeb62f3e2924a7e21e207585abd13487bf747c9c4d064736f6c63430008180033",
  "linkReferences": {},
  "deployedLinkReferences": {}
}