{
  "_format": "hh-sol-artifact-1",
  "contractName": "ProductRegistry",
  "sourceName": "contracts/ProductRegistry.sol",
  "abi": [
    {
      "anonymous": false,
      "inputs": [
        {
          "indexed": true,
          "internalType": "bytes32",
          "name": "productKey",
          "type": "bytes32"
        },
        {
          "indexed": false,
          "internalType": "string",
          "name": "externalId",
          "type": "string"
        },
        {
          "indexed": false,
          "internalType": "string",
          "name": "metadataHash",
          "type": "string"
        },
        {
          "indexed": true,
          "internalType": "address",
          "name": "owner",
          "type": "address"
        },
        {
          "indexed": false,
          "internalType": "uint256",
          "name": "createdAt",
          "type": "uint256"
        }
      ],
      "name": "ProductRegistered",
      "type": "event"
    },
    {
      "inputs": [
        {
          "internalType": "bytes32",
          "name": "productKey",
          "type": "bytes32"
        }
      ],
      "name": "getProduct",
      "outputs": [
        {
          "components": [
            {
              "internalType": "string",
              "name": "externalId",
              "type": "string"
            },
            {
              "internalType": "string",
              "name": "metadataHash",
              "type": "string"
            },
            {
              "internalType": "address",
              "name": "owner",
              "type": "address"
            },
            {
              "internalType": "uint256",
              "name": "createdAt",
              "type": "uint256"
            }
          ],
          "internalType": "struct ProductRegistry.Product",
          "name": "",
          "type": "tuple"
        }
      ],
      "stateMutability": "view",
      "type": "function"
    },
    {
      "inputs": [
        {
          "internalType": "string",
          "name": "externalId",
          "type": "string"
        },
        {
          "internalType": "string",
          "name": "metadataHash",
          "type": "string"
        }
      ],
      "name": "registerProduct",
      "outputs": [
        {
          "internalType": "bytes32",
          "name": "productKey",
          "type": "bytes32"
        }
      ],
      "stateMutability": "nonpayable",
      "type": "function"
    }
  ],
  "bytecode": "0x608060405234801561001057600080fd5b5061083b806100206000396000f3fe608060405234801561001057600080fd5b50600436106100365760003560e01c80633a20e9df1461003b5780638fbd0dcf14610064575b600080fd5b61004e6100493660046104b8565b610085565b60405161005b9190610517565b60405180910390f35b6100776100723660046105c5565b610272565b60405190815260200161005b565b6100b96040518060800160405280606081526020016060815260200160006001600160a01b03168152602001600081525090565b60008281526020819052604081206003015490036101125760405162461bcd60e51b8152602060048201526011602482015270141c9bd91d58dd081b9bdd08199bdd5b99607a1b60448201526064015b60405180910390fd5b6000828152602081905260409081902081516080810190925280548290829061013a90610631565b80601f016020809104026020016040519081016040528092919081815260200182805461016690610631565b80156101b35780601f10610188576101008083540402835291602001916101b3565b820191906000526020600020905b81548152906001019060200180831161019657829003601f168201915b505050505081526020016001820180546101cc90610631565b80601f01602080910402602001604051908101604052809291908181526020018280546101f890610631565b80156102455780601f1061021a57610100808354040283529160200191610245565b820191906000526020600020905b81548152906001019060200180831161022857829003601f168201915b505050918352505060028201546001600160a01b0316602082015260039091015460409091015292915050565b6000836102b85760405162461bcd60e51b8152602060048201526014602482015273115e1d195c9b985b081251081c995c5d5a5c995960621b6044820152606401610109565b816102fe5760405162461bcd60e51b815260206004820152601660248201527513595d1859185d18481a185cda081c995c5d5a5c995960521b6044820152606401610109565b848460405160200161031192919061066b565b60408051601f198184030181529181528151602092830120600081815292839052912060030154909150156103815760405162461bcd60e51b815260206004820152601660248201527550726f6475637420616c72656164792065786973747360501b6044820152606401610109565b604051806080016040528086868080601f016020809104026020016040519081016040528093929190818152602001838380828437600092019190915250505090825250604080516020601f87018190048102820181019092528581529181019190869086908190840183828082843760009201829052509385525050336020808501919091524260409485015285835282905250208151819061042590826106e2565b506020820151600182019061043a90826106e2565b506040828101516002830180546001600160a01b0319166001600160a01b0390921691909117905560609092015160039091015551339082907fb3f41800685cdc4de6480047c707fb16159cf09dc4d05d9bbb6b3bbb1fded948906104a890899089908990899042906107cb565b60405180910390a3949350505050565b6000602082840312156104ca57600080fd5b5035919050565b6000815180845260005b818110156104f7576020818501810151868301820152016104db565b506000602082860101526020601f19601f83011685010191505092915050565b60208152600082516080602084015261053360a08401826104d1565b90506020840151601f1984830301604085015261055082826104d1565b60408601516001600160a01b031660608681019190915290950151608090940193909352509192915050565b60008083601f84011261058e57600080fd5b50813567ffffffffffffffff8111156105a657600080fd5b6020830191508360208285010111156105be57600080fd5b9250929050565b600080600080604085870312156105db57600080fd5b843567ffffffffffffffff808211156105f357600080fd5b6105ff8883890161057c565b9096509450602087013591508082111561061857600080fd5b506106258782880161057c565b95989497509550505050565b600181811c9082168061064557607f821691505b60208210810361066557634e487b7160e01b600052602260045260246000fd5b50919050565b8183823760009101908152919050565b634e487b7160e01b600052604160045260246000fd5b601f8211156106dd576000816000526020600020601f850160051c810160208610156106ba5750805b601f850160051c820191505b818110156106d9578281556001016106c6565b5050505b505050565b815167ffffffffffffffff8111156106fc576106fc61067b565b6107108161070a8454610631565b84610691565b602080601f831160018114610745576000841561072d5750858301515b600019600386901b1c1916600185901b1785556106d9565b600085815260208120601f198616915b8281101561077457888601518255948401946001909101908401610755565b50858210156107925787850151600019600388901b60f8161c191681555b5050505050600190811b01905550565b81835281816020850137506000828201602090810191909152601f909101601f19169091010190565b6060815260006107df6060830187896107a2565b82810360208401526107f28186886107a2565b915050826040830152969550505050505056fea26469706673582212205ba4f6884dea18de06a0067540acbfa87a7942a4fd7db2bc5bf442deb3b7675864736f6c63430008180033",
  "linkReferences": {},
  "deployedLinkReferences": {}
}