{
  "_format": "hh-sol-artifact-1",
  "contractName": "EscrowManager",
  "sourceName": "contracts/escrow/EscrowManager.sol",
  "abi": [
    {
      "inputs": [
        {
          "internalType": "address",
          "name": "registryAddress",
          "type": "address"
        }
      ],
      "stateMutability": "nonpayable",
      "type": "constructor"
    },
    {
      "inputs": [],
      "name": "AlreadyExists",
      "type": "error"
    },
    {
      "inputs": [],
      "name": "EscrowExpired",
      "type": "error"
    },
    {
      "inputs": [],
      "name": "InvalidAddress",
      "type": "error"
    },
    {
      "inputs": [],
      "name": "InvalidAmount",
      "type": "error"
    },
    {
      "inputs": [],
      "name": "InvalidDeadline",
      "type": "error"
    },
    {
      "inputs": [],
      "name": "InvalidPaymentToken",
      "type": "error"
    },
    {
      "inputs": [],
      "name": "InvalidStatus",
      "type": "error"
    },
    {
      "inputs": [],
      "name": "NotEscrowParty",
      "type": "error"
    },
    {
      "inputs": [],
      "name": "NotFound",
      "type": "error"
    },
    {
      "inputs": [],
      "name": "ProductInactive",
      "type": "error"
    },
    {
      "inputs": [],
      "name": "TransferFailed",
      "type": "error"
    },
    {
      "inputs": [],
      "name": "Unauthorized",
      "type": "error"
    },
    {
      "anonymous": false,
      "inputs": [
        {
          "indexed": true,
          "internalType": "bytes32",
          "name": "escrowId",
          "type": "bytes32"
        }
      ],
      "name": "EscrowCancelled",
      "type": "event"
    },
    {
      "anonymous": false,
      "inputs": [
        {
          "indexed": true,
          "internalType": "bytes32",
          "name": "escrowId",
          "type": "bytes32"
        },
        {
          "indexed": true,
          "internalType": "address",
          "name": "seller",
          "type": "address"
        },
        {
          "indexed": false,
          "internalType": "uint256",
          "name": "amount",
          "type": "uint256"
        }
      ],
      "name": "EscrowCompleted",
      "type": "event"
    },
    {
      "anonymous": false,
      "inputs": [
        {
          "indexed": true,
          "internalType": "bytes32",
          "name": "escrowId",
          "type": "bytes32"
        },
        {
          "indexed": true,
          "internalType": "uint256",
          "name": "productId",
          "type": "uint256"
        },
        {
          "indexed": true,
          "internalType": "address",
          "name": "buyer",
          "type": "address"
        },
        {
          "indexed": false,
          "internalType": "address",
          "name": "seller",
          "type": "address"
        },
        {
          "indexed": false,
          "internalType": "address",
          "name": "paymentToken",
          "type": "address"
        },
        {
          "indexed": false,
          "internalType": "uint256",
          "name": "amount",
          "type": "uint256"
        }
      ],
      "name": "EscrowCreated",
      "type": "event"
    },
    {
      "anonymous": false,
      "inputs": [
        {
          "indexed": true,
          "internalType": "bytes32",
          "name": "escrowId",
          "type": "bytes32"
        }
      ],
      "name": "EscrowDelivered",
      "type": "event"
    },
    {
      "anonymous": false,
      "inputs": [
        {
          "indexed": true,
          "internalType": "bytes32",
          "name": "escrowId",
          "type": "bytes32"
        },
        {
          "indexed": true,
          "internalType": "address",
          "name": "raisedBy",
          "type": "address"
        },
        {
          "indexed": false,
          "internalType": "string",
          "name": "reason",
          "type": "string"
        }
      ],
      "name": "EscrowDisputed",
      "type": "event"
    },
    {
      "anonymous": false,
      "inputs": [
        {
          "indexed": true,
          "internalType": "bytes32",
          "name": "escrowId",
          "type": "bytes32"
        },
        {
          "indexed": true,
          "internalType": "address",
          "name": "payer",
          "type": "address"
        },
        {
          "indexed": false,
          "internalType": "uint256",
          "name": "amount",
          "type": "uint256"
        }
      ],
      "name": "EscrowFunded",
      "type": "event"
    },
    {
      "anonymous": false,
      "inputs": [
        {
          "indexed": true,
          "internalType": "bytes32",
          "name": "escrowId",
          "type": "bytes32"
        },
        {
          "indexed": false,
          "internalType": "uint256",
          "name": "sellerAmount",
          "type": "uint256"
        },
        {
          "indexed": false,
          "internalType": "uint256",
          "name": "buyerAmount",
          "type": "uint256"
        }
      ],
      "name": "EscrowResolved",
      "type": "event"
    },
    {
      "anonymous": false,
      "inputs": [
        {
          "indexed": true,
          "internalType": "address",
          "name": "previousOwner",
          "type": "address"
        },
        {
          "indexed": true,
          "internalType": "address",
          "name": "newOwner",
          "type": "address"
        }
      ],
      "name": "OwnerTransferred",
      "type": "event"
    },
    {
      "anonymous": false,
      "inputs": [
        {
          "indexed": true,
          "internalType": "uint256",
          "name": "productId",
          "type": "uint256"
        },
        {
          "indexed": false,
          "internalType": "string",
          "name": "externalId",
          "type": "string"
        },
        {
          "indexed": true,
          "internalType": "address",
          "name": "owner",
          "type": "address"
        },
        {
          "indexed": false,
          "internalType": "address",
          "name": "acceptedToken",
          "type": "address"
        },
        {
          "indexed": false,
          "internalType": "uint256",
          "name": "unitPrice",
          "type": "uint256"
        }
      ],
      "name": "ProductCreated",
      "type": "event"
    },
    {
      "anonymous": false,
      "inputs": [
        {
          "indexed": true,
          "internalType": "uint256",
          "name": "productId",
          "type": "uint256"
        },
        {
          "indexed": true,
          "internalType": "address",
          "name": "previousOwner",
          "type": "address"
        },
        {
          "indexed": true,
          "internalType": "address",
          "name": "newOwner",
          "type": "address"
        }
      ],
      "name": "ProductOwnershipTransferred",
      "type": "event"
    },
    {
      "anonymous": false,
      "inputs": [
        {
          "indexed": true,
          "internalType": "uint256",
          "name": "productId",
          "type": "uint256"
        },
        {
          "indexed": false,
          "internalType": "string",
          "name": "metadataHash",
          "type": "string"
        },
        {
          "indexed": false,
          "internalType": "address",
          "name": "acceptedToken",
          "type": "address"
        },
        {
          "indexed": false,
          "internalType": "uint256",
          "name": "unitPrice",
          "type": "uint256"
        },
        {
          "indexed": false,
          "internalType": "bool",
          "name": "active",
          "type": "bool"
        }
      ],
      "name": "ProductUpdated",
      "type": "event"
    },
    {
      "anonymous": false,
      "inputs": [
        {
          "indexed": true,
          "internalType": "bytes32",
          "name": "role",
          "type": "bytes32"
        },
        {
          "indexed": true,
          "internalType": "address",
          "name": "account",
          "type": "address"
        },
        {
          "indexed": false,
          "internalType": "bool",
          "name": "enabled",
          "type": "bool"
        }
      ],
      "name": "RoleUpdated",
      "type": "event"
    },
    {
      "inputs": [],
      "name": "ADMIN_ROLE",
      "outputs": [
        {
          "internalType": "bytes32",
          "name": "",
          "type": "bytes32"
        }
      ],
      "stateMutability": "view",
      "type": "function"
    },
    {
      "inputs": [],
      "name": "ARBITER_ROLE",
      "outputs": [
        {
          "internalType": "bytes32",
          "name": "",
          "type": "bytes32"
        }
      ],
      "stateMutability": "view",
      "type": "function"
    },
    {
      "inputs": [],
      "name": "DEFAULT_DISPUTE_WINDOW",
      "outputs": [
        {
          "internalType": "uint256",
          "name": "",
          "type": "uint256"
        }
      ],
      "stateMutability": "view",
      "type": "function"
    },
    {
      "inputs": [],
      "name": "MAX_DEADLINE_DURATION",
      "outputs": [
        {
          "internalType": "uint256",
          "name": "",
          "type": "uint256"
        }
      ],
      "stateMutability": "view",
      "type": "function"
    },
    {
      "inputs": [],
      "name": "MIN_DEADLINE_DURATION",
      "outputs": [
        {
          "internalType": "uint256",
          "name": "",
          "type": "uint256"
        }
      ],
      "stateMutability": "view",
      "type": "function"
    },
    {
      "inputs": [],
      "name": "SELLER_MANAGER_ROLE",
      "outputs": [
        {
          "internalType": "bytes32",
          "name": "",
          "type": "bytes32"
        }
      ],
      "stateMutability": "view",
      "type": "function"
    },
    {
      "inputs": [
        {
          "internalType": "bytes32",
          "name": "escrowId",
          "type": "bytes32"
        }
      ],
      "name": "autoReleaseAfterWindow",
      "outputs": [],
      "stateMutability": "nonpayable",
      "type": "function"
    },
    {
      "inputs": [
        {
          "internalType": "bytes32",
          "name": "escrowId",
          "type": "bytes32"
        }
      ],
      "name": "cancelUnfundedEscrow",
      "outputs": [],
      "stateMutability": "nonpayable",
      "type": "function"
    },
    {
      "inputs": [
        {
          "internalType": "bytes32",
          "name": "escrowId",
          "type": "bytes32"
        }
      ],
      "name": "confirmAndRelease",
      "outputs": [],
      "stateMutability": "nonpayable",
      "type": "function"
    },
    {
      "inputs": [
        {
          "internalType": "uint256",
          "name": "productId",
          "type": "uint256"
        },
        {
          "internalType": "address",
          "name": "seller",
          "type": "address"
        },
        {
          "internalType": "address",
          "name": "paymentToken",
          "type": "address"
        },
        {
          "internalType": "uint256",
          "name": "amount",
          "type": "uint256"
        },
        {
          "internalType": "uint256",
          "name": "deadline",
          "type": "uint256"
        }
      ],
      "name": "createEscrow",
      "outputs": [
        {
          "internalType": "bytes32",
          "name": "escrowId",
          "type": "bytes32"
        }
      ],
      "stateMutability": "nonpayable",
      "type": "function"
    },
    {
      "inputs": [
        {
          "internalType": "bytes32",
          "name": "",
          "type": "bytes32"
        }
      ],
      "name": "escrows",
      "outputs": [
        {
          "internalType": "bytes32",
          "name": "id",
          "type": "bytes32"
        },
        {
          "internalType": "uint256",
          "name": "productId",
          "type": "uint256"
        },
        {
          "internalType": "address",
          "name": "buyer",
          "type": "address"
        },
        {
          "internalType": "address",
          "name": "seller",
          "type": "address"
        },
        {
          "internalType": "address",
          "name": "paymentToken",
          "type": "address"
        },
        {
          "internalType": "uint256",
          "name": "amount",
          "type": "uint256"
        },
        {
          "internalType": "uint256",
          "name": "createdAt",
          "type": "uint256"
        },
        {
          "internalType": "uint256",
          "name": "deadline",
          "type": "uint256"
        },
        {
          "internalType": "uint256",
          "name": "disputeWindowEndsAt",
          "type": "uint256"
        },
        {
          "internalType": "enum ProtocolTypes.EscrowStatus",
          "name": "status",
          "type": "uint8"
        }
      ],
      "stateMutability": "view",
      "type": "function"
    },
    {
      "inputs": [
        {
          "internalType": "bytes32",
          "name": "escrowId",
          "type": "bytes32"
        }
      ],
      "name": "fundEscrow",
      "outputs": [],
      "stateMutability": "payable",
      "type": "function"
    },
    {
      "inputs": [
        {
          "internalType": "bytes32",
          "name": "role",
          "type": "bytes32"
        },
        {
          "internalType": "address",
          "name": "account",
          "type": "address"
        }
      ],
      "name": "hasRole",
      "outputs": [
        {
          "internalType": "bool",
          "name": "",
          "type": "bool"
        }
      ],
      "stateMutability": "view",
      "type": "function"
    },
    {
      "inputs": [
        {
          "internalType": "bytes32",
          "name": "escrowId",
          "type": "bytes32"
        }
      ],
      "name": "markDelivered",
      "outputs": [],
      "stateMutability": "nonpayable",
      "type": "function"
    },
    {
      "inputs": [],
      "name": "owner",
      "outputs": [
        {
          "internalType": "address",
          "name": "",
          "type": "address"
        }
      ],
      "stateMutability": "view",
      "type": "function"
    },
    {
      "inputs": [],
      "name": "productRegistry",
      "outputs": [
        {
          "internalType": "contract IProductRegistry",
          "name": "",
          "type": "address"
        }
      ],
      "stateMutability": "view",
      "type": "function"
    },
    {
      "inputs": [
        {
          "internalType": "bytes32",
          "name": "escrowId",
          "type": "bytes32"
        },
        {
          "internalType": "string",
          "name": "reason",
          "type": "string"
        }
      ],
      "name": "raiseDispute",
      "outputs": [],
      "stateMutability": "nonpayable",
      "type": "function"
    },
    {
      "inputs": [
        {
          "internalType": "bytes32",
          "name": "escrowId",
          "type": "bytes32"
        },
        {
          "internalType": "uint16",
          "name": "sellerShareBps",
          "type": "uint16"
        }
      ],
      "name": "resolveDispute",
      "outputs": [],
      "stateMutability": "nonpayable",
      "type": "function"
    },
    {
      "inputs": [
        {
          "internalType": "bytes32",
          "name": "role",
          "type": "bytes32"
        },
        {
          "internalType": "address",
          "name": "account",
          "type": "address"
        },
        {
          "internalType": "bool",
          "name": "enabled",
          "type": "bool"
        }
      ],
      "name": "setRole",
      "outputs": [],
      "stateMutability": "nonpayable",
      "type": "function"
    },
    {
      "inputs": [
        {
          "internalType": "address",
          "name": "newOwner",
          "type": "address"
        }
      ],
      "name": "transferOwnership",
      "outputs": [],
      "stateMutability": "nonpayable",
      "type": "function"
    },
    {
      "inputs": [],
      "name": "vault",
      "outputs": [
        {
          "internalType": "contract EscrowVault",
          "name": "",
          "type": "address"
        }
      ],
      "stateMutability": "view",
      "type": "function"
    }
  ],
  "bytecode": "0x60c06040523480156200001157600080fd5b506040516200240238038062002402833981016040819052620000349162000194565b600080546001600160a01b0319163390811782558082527f50efbde2d46c37e9785f1791697f77e94bb7b701e19f1930a668820722d376946020526040808320805460ff19166001179055519091907f8934ce4adea8d9ce0d714d2c22b86790e41b7731c84b926fbbdc1d40ff6533c9908290a36040516001815233907fa49807205ce4d355092ef5a8a18f56e8913cf4a201fbe287825b095693c21775907f5f0ecfd1ea5555d5b4b6140b49c92365beaf40d0a057dc34a9746990cd4ce8d49060200160405180910390a36001600160a01b038116620001285760405163e6c4247b60e01b815260040160405180910390fd5b6001600160a01b0381166080526040513090620001459062000186565b6001600160a01b039091168152602001604051809103906000f08015801562000172573d6000803e3d6000fd5b506001600160a01b031660a05250620001c6565b6106ce8062001d3483390190565b600060208284031215620001a757600080fd5b81516001600160a01b0381168114620001bf57600080fd5b9392505050565b60805160a051611b1062000224600039600081816104580152818161076d0152818161080e0152818161126f01528181611323015281816113f801526114f001526000818161048c015281816109070152610a080152611b106000f3fe60806040526004361061012a5760003560e01c80639a666664116100ab578063c57b9c0c1161006f578063c57b9c0c146103dd578063e9f37d81146103f3578063f2fde38b14610413578063f8e65d6114610433578063fbfa77cf14610446578063fff218c31461047a57600080fd5b80639a6666641461033d578063a68063681461035d578063b6914c521461037d578063bd5a593b1461039d578063be7b8a77146103bd57600080fd5b806375b238fc116100f257806375b238fc1461027c5780637f4204931461029e5780638da5cb5b146102be57806391d14854146102f6578063998908951461032657600080fd5b80632d83549c1461012f5780634d104adf146101cd57806355e994641461020f5780636a951316146102435780637322ae3714610265575b600080fd5b34801561013b57600080fd5b506101ae61014a366004611594565b600260208190526000918252604090912080546001820154928201546003830154600484015460058501546006860154600787015460088801546009909801549698976001600160a01b039687169795871696909416949293919290919060ff168a565b6040516101c49a999897969594939291906115c3565b60405180910390f35b3480156101d957600080fd5b506102017fbb08418a67729a078f87bbc8d02a770929bb68f5bfdf134ae2ead6ed38e2f4ae81565b6040519081526020016101c4565b34801561021b57600080fd5b506102017f2560ab6f140afee5747a211a622d03816964de9b22fcbd0828e0bd98f13a392d81565b34801561024f57600080fd5b5061026361025e366004611668565b6104ae565b005b34801561027157600080fd5b5061020162278d0081565b34801561028857600080fd5b50610201600080516020611abb83398151915281565b3480156102aa57600080fd5b506102636102b9366004611594565b61056a565b3480156102ca57600080fd5b506000546102de906001600160a01b031681565b6040516001600160a01b0390911681526020016101c4565b34801561030257600080fd5b506103166103113660046116aa565b61060e565b60405190151581526020016101c4565b34801561033257600080fd5b506102016202a30081565b34801561034957600080fd5b506102636103583660046116da565b61063b565b34801561036957600080fd5b50610201610378366004611706565b6108bd565b34801561038957600080fd5b50610263610398366004611594565b610d25565b3480156103a957600080fd5b506102636103b8366004611594565b610e0f565b3480156103c957600080fd5b506102636103d8366004611758565b610e88565b3480156103e957600080fd5b50610201610e1081565b3480156103ff57600080fd5b5061026361040e366004611594565b610f91565b34801561041f57600080fd5b5061026361042e3660046117d4565b611065565b610263610441366004611594565b61118b565b34801561045257600080fd5b506102de7f000000000000000000000000000000000000000000000000000000000000000081565b34801561048657600080fd5b506102de7f000000000000000000000000000000000000000000000000000000000000000081565b6000546001600160a01b031633146104d8576040516282b42960e81b815260040160405180910390fd5b6001600160a01b0382166104ff5760405163e6c4247b60e01b815260040160405180910390fd5b60008381526001602090815260408083206001600160a01b03861680855290835292819020805460ff1916851515908117909155905190815285917f5f0ecfd1ea5555d5b4b6140b49c92365beaf40d0a057dc34a9746990cd4ce8d4910160405180910390a3505050565b60008181526002602052604090206003600982015460ff166007811115610593576105936115ad565b146105b1576040516307a92f1960e51b815260040160405180910390fd5b60028101546001600160a01b031633148015906105e357506105e1600080516020611abb8339815191523361060e565b155b15610600576040516282b42960e81b815260040160405180910390fd5b61060a828261149e565b5050565b60008281526001602090815260408083206001600160a01b038516845290915290205460ff165b92915050565b7fbb08418a67729a078f87bbc8d02a770929bb68f5bfdf134ae2ead6ed38e2f4ae610666813361060e565b610682576040516282b42960e81b815260040160405180910390fd5b6127108261ffff1611156106a95760405163162908e360e11b815260040160405180910390fd5b60008381526002602052604090206005600982015460ff1660078111156106d2576106d26115ad565b146106f0576040516307a92f1960e51b815260040160405180910390fd5b60006127108461ffff168360050154610709919061180e565b6107139190611825565b905060008183600501546107279190611847565b905081156107ca576004838101546003850154604051634010476360e01b81529283018990526001600160a01b03918216602484015281166044830152606482018490527f00000000000000000000000000000000000000000000000000000000000000001690634010476390608401600060405180830381600087803b1580156107b157600080fd5b505af11580156107c5573d6000803e3d6000fd5b505050505b801561086b576004838101546002850154604051634010476360e01b81529283018990526001600160a01b03918216602484015281166044830152606482018390527f00000000000000000000000000000000000000000000000000000000000000001690634010476390608401600060405180830381600087803b15801561085257600080fd5b505af1158015610866573d6000803e3d6000fd5b505050505b60098301805460ff19166004179055604080518381526020810183905287917f88624dd1eb00ce801a086bf00ffd13e68081d4e64a47fc3721a6be84b755a1e1910160405180910390a2505050505050565b60006001600160a01b03851615806108d3575082155b156108f15760405163162908e360e11b815260040160405180910390fd5b604051632bd57b5960e21b8152600481018790527f00000000000000000000000000000000000000000000000000000000000000006001600160a01b03169063af55ed6490602401602060405180830381865afa158015610956573d6000803e3d6000fd5b505050506040513d601f19601f8201168201806040525081019061097a919061186a565b6109975760405163c5723b5160e01b815260040160405180910390fd5b6109a3610e1042611887565b82116109c257604051631da7447960e21b815260040160405180910390fd5b6109cf62278d0042611887565b8211156109ef57604051631da7447960e21b815260040160405180910390fd5b604051632e76c56d60e21b8152600481018790526000907f00000000000000000000000000000000000000000000000000000000000000006001600160a01b03169063b9db15b490602401600060405180830381865afa158015610a57573d6000803e3d6000fd5b505050506040513d6000823e601f3d908101601f19168201604052610a7f919081019061199b565b90508060c00151610aa357604051634664648b60e01b815260040160405180910390fd5b846001600160a01b031681608001516001600160a01b031614610ad9576040516356e7ec5f60e01b815260040160405180910390fd5b604080514660208201529081018890526bffffffffffffffffffffffff1933606090811b82168184015288811b8216607484015287901b166088820152609c81018590524260bc82015260dc0160408051601f19818403018152919052805160209091012091506000808381526002602052604090206009015460ff166007811115610b6757610b676115ad565b14610b855760405163119b4fd360e11b815260040160405180910390fd5b604051806101400160405280838152602001888152602001336001600160a01b03168152602001876001600160a01b03168152602001866001600160a01b031681526020018581526020014281526020018481526020016000815260200160016007811115610bf657610bf66115ad565b905260008381526002602081815260409283902084518155908401516001808301919091559284015191810180546001600160a01b039384166001600160a01b031991821617909155606085015160038301805491851691831691909117905560808501516004830180549190941691161790915560a0830151600582015560c0830151600682015560e0830151600780830191909155610100840151600883015561012084015160098301805493949193909260ff1990911691908490811115610cc357610cc36115ad565b021790555050604080516001600160a01b03898116825288166020820152908101869052339150889084907ff18ecd9ae0383419450c7de7a268452c667a797d16812e52814eb1eae9b1e4c19060600160405180910390a45095945050505050565b600081815260026020819052604090912090600982015460ff166007811115610d5057610d506115ad565b14610d6e576040516307a92f1960e51b815260040160405180910390fd5b60038101546001600160a01b03163314610d9a576040516282b42960e81b815260040160405180910390fd5b8060070154421115610dbf57604051633c4fac2d60e01b815260040160405180910390fd5b60098101805460ff19166003179055610ddb6202a30042611887565b600882015560405182907f12d3b5fe97d397032a22729004b77a2a67c6862e86e48cdbf1cbcb0ca4e43a5190600090a25050565b60008181526002602052604090206003600982015460ff166007811115610e3857610e386115ad565b14610e56576040516307a92f1960e51b815260040160405180910390fd5b60088101541580610e6a5750806008015442105b15610600576040516307a92f1960e51b815260040160405180910390fd5b60008381526002602052604090206003600982015460ff166007811115610eb157610eb16115ad565b14158015610ed857506002600982015460ff166007811115610ed557610ed56115ad565b14155b15610ef6576040516307a92f1960e51b815260040160405180910390fd5b60028101546001600160a01b03163314801590610f20575060038101546001600160a01b03163314155b15610f3e5760405163d5abedff60e01b815260040160405180910390fd5b60098101805460ff19166005179055604051339085907f85df63e82b1c4b692591e851fd05ac7c87d4dd28557d780c47c462a11f64e0c890610f839087908790611a8b565b60405180910390a350505050565b60008181526002602052604090206001600982015460ff166007811115610fba57610fba6115ad565b14610fd8576040516307a92f1960e51b815260040160405180910390fd5b60028101546001600160a01b0316331480159061100a5750611008600080516020611abb8339815191523361060e565b155b15611027576040516282b42960e81b815260040160405180910390fd5b60098101805460ff1916600617905560405182907f642e58efcd0db9e3e5171b8f71a4655b98647c098a6aa596308df9e8037ecc0990600090a25050565b6000546001600160a01b0316331461108f576040516282b42960e81b815260040160405180910390fd5b6001600160a01b0381166110b65760405163e6c4247b60e01b815260040160405180910390fd5b600080546001600160a01b038381166001600160a01b03198316811784558084527f50efbde2d46c37e9785f1791697f77e94bb7b701e19f1930a668820722d376946020526040808520805460ff1916600117905551919092169283917f8934ce4adea8d9ce0d714d2c22b86790e41b7731c84b926fbbdc1d40ff6533c99190a3604051600181526001600160a01b03831690600080516020611abb833981519152907f5f0ecfd1ea5555d5b4b6140b49c92365beaf40d0a057dc34a9746990cd4ce8d4906020015b60405180910390a35050565b60008181526002602052604090206001600982015460ff1660078111156111b4576111b46115ad565b146111d2576040516307a92f1960e51b815260040160405180910390fd5b60028101546001600160a01b031633146111fe576040516282b42960e81b815260040160405180910390fd5b806007015442111561122357604051633c4fac2d60e01b815260040160405180910390fd5b60048101546001600160a01b03166112da57806005015434146112595760405163162908e360e11b815260040160405180910390fd5b6040516342ef5fbb60e01b8152600481018390527f00000000000000000000000000000000000000000000000000000000000000006001600160a01b0316906342ef5fbb9034906024016000604051808303818588803b1580156112bc57600080fd5b505af11580156112d0573d6000803e3d6000fd5b5050505050611456565b34156112f95760405163162908e360e11b815260040160405180910390fd5b60048181015460058301546040516323b872dd60e01b815233938101939093526001600160a01b037f00000000000000000000000000000000000000000000000000000000000000008116602485015260448401919091526000929116906323b872dd906064016020604051808303816000875af115801561137f573d6000803e3d6000fd5b505050506040513d601f19601f820116820180604052508101906113a3919061186a565b9050806113c3576040516312171d8360e31b815260040160405180910390fd5b6004828101546005840154604051630a9e4c0760e21b81529283018690526001600160a01b03918216602484015260448301527f00000000000000000000000000000000000000000000000000000000000000001690632a79301c90606401600060405180830381600087803b15801561143c57600080fd5b505af1158015611450573d6000803e3d6000fd5b50505050505b60098101805460ff191660021790556005810154604051908152339083907fb0f7b6ab70e0186c433938ee752b2498a7cab42018e6bf7596cd704c81c470bc9060200161117f565b60098101805460ff191660049081179091558082015460038301546005840154604051634010476360e01b81529384018690526001600160a01b039283166024850152908216604484015260648301527f00000000000000000000000000000000000000000000000000000000000000001690634010476390608401600060405180830381600087803b15801561153457600080fd5b505af1158015611548573d6000803e3d6000fd5b50505050600381015460058201546040519081526001600160a01b039091169083907f49c39d96c5edb672b15a37e384d9bbef26585197d39e4c3f7b4b34c3363565179060200161117f565b6000602082840312156115a657600080fd5b5035919050565b634e487b7160e01b600052602160045260246000fd5b8a8152602081018a90526001600160a01b03898116604083015288811660608301528716608082015260a0810186905260c0810185905260e08101849052610100810183905261014081016008831061162c57634e487b7160e01b600052602160045260246000fd5b826101208301529b9a5050505050505050505050565b6001600160a01b038116811461165757600080fd5b50565b801515811461165757600080fd5b60008060006060848603121561167d57600080fd5b83359250602084013561168f81611642565b9150604084013561169f8161165a565b809150509250925092565b600080604083850312156116bd57600080fd5b8235915060208301356116cf81611642565b809150509250929050565b600080604083850312156116ed57600080fd5b82359150602083013561ffff811681146116cf57600080fd5b600080600080600060a0868803121561171e57600080fd5b85359450602086013561173081611642565b9350604086013561174081611642565b94979396509394606081013594506080013592915050565b60008060006040848603121561176d57600080fd5b83359250602084013567ffffffffffffffff8082111561178c57600080fd5b818601915086601f8301126117a057600080fd5b8135818111156117af57600080fd5b8760208285010111156117c157600080fd5b6020830194508093505050509250925092565b6000602082840312156117e657600080fd5b81356117f181611642565b9392505050565b634e487b7160e01b600052601160045260246000fd5b8082028115828204841417610635576106356117f8565b60008261184257634e487b7160e01b600052601260045260246000fd5b500490565b81810381811115610635576106356117f8565b80516118658161165a565b919050565b60006020828403121561187c57600080fd5b81516117f18161165a565b80820180821115610635576106356117f8565b634e487b7160e01b600052604160045260246000fd5b604051610120810167ffffffffffffffff811182821017156118d4576118d461189a565b60405290565b604051601f8201601f1916810167ffffffffffffffff811182821017156119035761190361189a565b604052919050565b600082601f83011261191c57600080fd5b815167ffffffffffffffff8111156119365761193661189a565b602061194a601f8301601f191682016118da565b828152858284870101111561195e57600080fd5b60005b8381101561197c578581018301518282018401528201611961565b506000928101909101919091529392505050565b805161186581611642565b6000602082840312156119ad57600080fd5b815167ffffffffffffffff808211156119c557600080fd5b9083019061012082860312156119da57600080fd5b6119e26118b0565b825181526020830151828111156119f857600080fd5b611a048782860161190b565b602083015250604083015182811115611a1c57600080fd5b611a288782860161190b565b604083015250611a3a60608401611990565b6060820152611a4b60808401611990565b608082015260a083015160a0820152611a6660c0840161185a565b60c082015260e083810151908201526101009283015192810192909252509392505050565b60208152816020820152818360408301376000818301604090810191909152601f909201601f1916010191905056fea49807205ce4d355092ef5a8a18f56e8913cf4a201fbe287825b095693c21775a264697066735822122074d654a185dd1c0e17e94a63daf02eca7ff56bf9b445b075490d1a7543d611fb64736f6c6343000818003360a060405234801561001057600080fd5b506040516106ce3803806106ce83398101604081905261002f91610067565b6001600160a01b0381166100565760405163e6c4247b60e01b815260040160405180910390fd5b6001600160a01b0316608052610097565b60006020828403121561007957600080fd5b81516001600160a01b038116811461009057600080fd5b9392505050565b6080516106086100c66000396000818160b601528181610143015281816101f7015261040001526106086000f3fe60806040526004361061004a5760003560e01c80632a79301c1461004f578063401047631461007157806342ef5fbb14610091578063481c6a75146100a4578063c754e91f146100f5575b600080fd5b34801561005b57600080fd5b5061006f61006a3660046104a9565b610138565b005b34801561007d57600080fd5b5061006f61008c3660046104de565b6101ec565b61006f61009f366004610522565b6103f5565b3480156100b057600080fd5b506100d87f000000000000000000000000000000000000000000000000000000000000000081565b6040516001600160a01b0390911681526020015b60405180910390f35b34801561010157600080fd5b5061012a61011036600461053b565b600060208181529281526040808220909352908152205481565b6040519081526020016100ec565b336001600160a01b037f00000000000000000000000000000000000000000000000000000000000000001614610180576040516282b42960e81b815260040160405180910390fd5b6001600160a01b0382161580610194575080155b156101b25760405163162908e360e11b815260040160405180910390fd5b6000838152602081815260408083206001600160a01b0386168452909152812080548392906101e290849061057d565b9091555050505050565b336001600160a01b037f00000000000000000000000000000000000000000000000000000000000000001614610234576040516282b42960e81b815260040160405180910390fd5b6001600160a01b0382161580610248575080155b156102665760405163162908e360e11b815260040160405180910390fd5b6000848152602081815260408083206001600160a01b0387168452909152902054818110156102a85760405163162908e360e11b815260040160405180910390fd5b6102b28282610596565b6000868152602081815260408083206001600160a01b038916808552925290912091909155610355576000836001600160a01b03168360405160006040518083038185875af1925050503d8060008114610328576040519150601f19603f3d011682016040523d82523d6000602084013e61032d565b606091505b505090508061034f576040516312171d8360e31b815260040160405180910390fd5b506103ee565b60405163a9059cbb60e01b81526001600160a01b038481166004830152602482018490526000919086169063a9059cbb906044016020604051808303816000875af11580156103a8573d6000803e3d6000fd5b505050506040513d601f19601f820116820180604052508101906103cc91906105a9565b9050806103ec576040516312171d8360e31b815260040160405180910390fd5b505b5050505050565b336001600160a01b037f0000000000000000000000000000000000000000000000000000000000000000161461043d576040516282b42960e81b815260040160405180910390fd5b3460000361045e5760405163162908e360e11b815260040160405180910390fd5b6000818152602081815260408083208380529091528120805434929061048590849061057d565b909155505050565b80356001600160a01b03811681146104a457600080fd5b919050565b6000806000606084860312156104be57600080fd5b833592506104ce6020850161048d565b9150604084013590509250925092565b600080600080608085870312156104f457600080fd5b843593506105046020860161048d565b92506105126040860161048d565b9396929550929360600135925050565b60006020828403121561053457600080fd5b5035919050565b6000806040838503121561054e57600080fd5b8235915061055e6020840161048d565b90509250929050565b634e487b7160e01b600052601160045260246000fd5b8082018082111561059057610590610567565b92915050565b8181038181111561059057610590610567565b6000602082840312156105bb57600080fd5b815180151581146105cb57600080fd5b939250505056fea264697066735822122069643792d1c261bed1fc4c2afda6ade1ad9864121141ffce9eda8d5f7c6bcd2d64736f6c63430008180033",
  "linkReferences": {},
  "deployedLinkReferences": {}
}