{
  "_format": "hh-sol-artifact-1",
  "contractName": "OrderEscrow",
  "sourceName": "contracts/OrderEscrow.sol",
  "abi": [
    {
      "inputs": [],
      "stateMutability": "nonpayable",
      "type": "constructor"
    },
    {
      "anonymous": false,
      "inputs": [
        {
          "indexed": true,
          "internalType": "bytes32",
          "name": "orderId",
          "type": "bytes32"
        },
        {
          "indexed": true,
          "internalType": "address",
          "name": "buyer",
          "type": "address"
        },
        {
          "indexed": true,
          "internalType": "address",
          "name": "seller",
          "type": "address"
        },
        {
          "indexed": false,
          "internalType": "uint256",
          "name": "amount",
          "type": "uint256"
        }
      ],
      "name": "OrderFunded",
      "type": "event"
    },
    {
      "anonymous": false,
      "inputs": [
        {
          "indexed": true,
          "internalType": "bytes32",
          "name": "orderId",
          "type": "bytes32"
        },
        {
          "indexed": true,
          "internalType": "address",
          "name": "buyer",
          "type": "address"
        },
        {
          "indexed": false,
          "internalType": "uint256",
          "name": "amount",
          "type": "uint256"
        }
      ],
      "name": "OrderRefunded",
      "type": "event"
    },
    {
      "anonymous": false,
      "inputs": [
        {
          "indexed": true,
          "internalType": "bytes32",
          "name": "orderId",
          "type": "bytes32"
        },
        {
          "indexed": true,
          "internalType": "address",
          "name": "seller",
          "type": "address"
        },
        {
          "indexed": false,
          "internalType": "uint256",
          "name": "amount",
          "type": "uint256"
        }
      ],
      "name": "OrderReleased",
      "type": "event"
    },
    {
      "inputs": [
        {
          "internalType": "bytes32",
          "name": "orderId",
          "type": "bytes32"
        },
        {
          "internalType": "address",
          "name": "seller",
          "type": "address"
        }
      ],
      "name": "fundOrder",
      "outputs": [],
      "stateMutability": "payable",
      "type": "function"
    },
    {
      "inputs": [
        {
          "internalType": "bytes32",
          "name": "",
          "type": "bytes32"
        }
      ],
      "name": "orders",
      "outputs": [
        {
          "internalType": "address",
          "name": "buyer",
          "type": "address"
        },
        {
          "internalType": "address",
          "name": "seller",
          "type": "address"
        },
        {
          "internalType": "uint256",
          "name": "amount",
          "type": "uint256"
        },
        {
          "internalType": "enum OrderEscrow.Status",
          "name": "status",
          "type": "uint8"
        },
        {
          "internalType": "uint256",
          "name": "createdAt",
          "type": "uint256"
        }
      ],
      "stateMutability": "view",
      "type": "function"
    },
    {
      "inputs": [],
      "name": "owner",
      "outputs": [
        {
          "internalType": "address",
          "name": "",
          "type": "address"
        }
      ],
      "stateMutability": "view",
      "type": "function"
    },
    {
      "inputs": [
        {
          "internalType": "bytes32",
          "name": "orderId",
          "type": "bytes32"
        }
      ],
      "name": "refundToBuyer",
      "outputs": [],
      "stateMutability": "nonpayable",
      "type": "function"
    },
    {
      "inputs": [
        {
          "internalType": "bytes32",
          "name": "orderId",
          "type": "bytes32"
        }
      ],
      "name": "releaseToSeller",
      "outputs": [],
      "stateMutability": "nonpayable",
      "type": "function"
    }
  ],
  "bytecode": "0x608060405234801561001057600080fd5b50600180546001600160a01b031916331790556107d6806100326000396000f3fe60806040526004361061004a5760003560e01c80631523a8f61461004f5780632ab4d47d146100715780633c4d00af146100915780638da5cb5b146100a45780639c3f1e90146100e1575b600080fd5b34801561005b57600080fd5b5061006f61006a3660046106e5565b61014c565b005b34801561007d57600080fd5b5061006f61008c3660046106e5565b610316565b61006f61009f3660046106fe565b6104b1565b3480156100b057600080fd5b506001546100c4906001600160a01b031681565b6040516001600160a01b0390911681526020015b60405180910390f35b3480156100ed57600080fd5b5061013b6100fc3660046106e5565b600060208190529081526040902080546001820154600283015460038401546004909401546001600160a01b03938416949290931692909160ff169085565b6040516100d8959493929190610750565b6000818152602081905260409020600160038083015460ff16908111156101755761017561073a565b146101ba5760405162461bcd60e51b815260206004820152601060248201526f13dc99195c881b9bdd08199d5b99195960821b60448201526064015b60405180910390fd5b80546001600160a01b03163314806101dc57506001546001600160a01b031633145b6102195760405162461bcd60e51b815260206004820152600e60248201526d139bdd08185d5d1a1bdc9a5e995960921b60448201526064016101b1565b60038101805460ff191660029081179091556001820154908201546040516000926001600160a01b031691908381818185875af1925050503d806000811461027d576040519150601f19603f3d011682016040523d82523d6000602084013e610282565b606091505b50509050806102c55760405162461bcd60e51b815260206004820152600f60248201526e151c985b9cd9995c8819985a5b1959608a1b60448201526064016101b1565b600182015460028301546040519081526001600160a01b039091169084907f0153ebebfa848409b60cf14d94e47fc4d08cc639fea4653e23fcf22b4d962e38906020015b60405180910390a3505050565b6001546001600160a01b0316331461035d5760405162461bcd60e51b815260206004820152600a6024820152694f776e6572206f6e6c7960b01b60448201526064016101b1565b6000818152602081905260409020600160038083015460ff16908111156103865761038661073a565b146103c65760405162461bcd60e51b815260206004820152601060248201526f13dc99195c881b9bdd08199d5b99195960821b60448201526064016101b1565b6003818101805460ff19169091179055805460028201546040516000926001600160a01b031691908381818185875af1925050503d8060008114610426576040519150601f19603f3d011682016040523d82523d6000602084013e61042b565b606091505b505090508061046c5760405162461bcd60e51b815260206004820152600d60248201526c1499599d5b990819985a5b1959609a1b60448201526064016101b1565b815460028301546040519081526001600160a01b039091169084907f5573a774401f48f00a6daf92475b23c21e67cb0de431cf3d63cd0558188d155c90602001610309565b816104f15760405162461bcd60e51b815260206004820152601060248201526f125b9d985b1a59081bdc99195c88125160821b60448201526064016101b1565b6001600160a01b0381166105385760405162461bcd60e51b815260206004820152600e60248201526d24b73b30b634b21039b2b63632b960911b60448201526064016101b1565b6000341161057a5760405162461bcd60e51b815260206004820152600f60248201526e105b5bdd5b9d081c995c5d5a5c9959608a1b60448201526064016101b1565b60008281526020819052604081209060038083015460ff16908111156105a2576105a261073a565b146105e65760405162461bcd60e51b81526020600482015260146024820152734f7264657220616c72656164792065786973747360601b60448201526064016101b1565b6040805160a0810182523381526001600160a01b0384811660208084019182523484860190815260016060860181815242608088015260008b81529384905296909220855181549086166001600160a01b03199182161782559351818401805491909616941693909317909355915160028201559251600380850180549495949293909260ff19169184908111156106805761068061073a565b021790555060808201518160040155905050816001600160a01b0316336001600160a01b0316847f447f2e12faf379e3ebe6ae3a20c00dda34f7c7b7e6b4fc8a9c5381488412d45d346040516106d891815260200190565b60405180910390a4505050565b6000602082840312156106f757600080fd5b5035919050565b6000806040838503121561071157600080fd5b8235915060208301356001600160a01b038116811461072f57600080fd5b809150509250929050565b634e487b7160e01b600052602160045260246000fd5b6001600160a01b038681168252851660208201526040810184905260a081016004841061078d57634e487b7160e01b600052602160045260246000fd5b606082019390935260800152939250505056fea26469706673582212209b6e222aaf8cb1409646137b4127d4105fd053a518dffa404bf405587ea6391d64736f6c63430008180033",
  "linkReferences": {},
  "deployedLinkReferences": {}
}