{"contracts/ProductRegistry.sol":{"ProductRegistry":{"abi":[{"anonymous":false,"inputs":[{"indexed":true,"internalType":"bytes32","name":"productKey","type":"bytes32"},{"indexed":false,"internalType":"string","name":"externalId","type":"string"},{"indexed":false,"internalType":"string","name":"metadataHash","type":"string"},{"indexed":true,"internalType":"address","name":"owner","type":"address"},{"indexed":false,"internalType":"uint256","name":"createdAt","type":"uint256"}],"name":"ProductRegistered","type":"event"},{"inputs":[{"internalType":"bytes32","name":"productKey","type":"bytes32"}],"name":"getProduct","outputs":[{"components":[{"internalType":"string","name":"externalId","type":"string"},{"internalType":"string","name":"metadataHash","type":"string"},{"internalType":"address","name":"owner","type":"address"},{"internalType":"uint256","name":"createdAt","type":"uint256"}],"internalType":"struct ProductRegistry.Product","name":"","type":"tuple"}],"stateMutability":"view","type":"function"},{"inputs":[{"internalType":"string","name":"externalId","type":"string"},{"internalType":"string","name":"metadataHash","type":"string"}],"name":"registerProduct","outputs":[{"internalType":"bytes32","name":"productKey","type":"bytes32"}],"stateMutability":"nonpayable","type":"function"}],"evm":{"bytecode":{"linkReferences":{},"object":"608060405234801561001057600080fd5b5061083b806100206000396000f3fe608060405234801561001057600080fd5b50600436106100365760003560e01c80633a20e9df1461003b5780638fbd0dcf14610064575b600080fd5b61004e6100493660046104b8565b610085565b60405161005b9190610517565b60405180910390f35b6100776100723660046105c5565b610272565b60405190815260200161005b565b6100b96040518060800160405280606081526020016060815260200160006001600160a01b03168152602001600081525090565b60008281526020819052604081206003015490036101125760405162461bcd60e51b8152602060048201526011602482015270141c9bd91d58dd081b9bdd08199bdd5b99607a1b60448201526064015b60405180910390fd5b6000828152602081905260409081902081516080810190925280548290829061013a90610631565b80601f016020809104026020016040519081016040528092919081815260200182805461016690610631565b80156101b35780601f10610188576101008083540402835291602001916101b3565b820191906000526020600020905b81548152906001019060200180831161019657829003601f168201915b505050505081526020016001820180546101cc90610631565b80601f01602080910402602001604051908101604052809291908181526020018280546101f890610631565b80156102455780601f1061021a57610100808354040283529160200191610245565b820191906000526020600020905b81548152906001019060200180831161022857829003601f168201915b505050918352505060028201546001600160a01b0316602082015260039091015460409091015292915050565b6000836102b85760405162461bcd60e51b8152602060048201526014602482015273115e1d195c9b985b081251081c995c5d5a5c995960621b6044820152606401610109565b816102fe5760405162461bcd60e51b815260206004820152601660248201527513595d1859185d18481a185cda081c995c5d5a5c995960521b6044820152606401610109565b848460405160200161031192919061066b565b60408051601f198184030181529181528151602092830120600081815292839052912060030154909150156103815760405162461bcd60e51b815260206004820152601660248201527550726f6475637420616c72656164792065786973747360501b6044820152606401610109565b604051806080016040528086868080601f016020809104026020016040519081016040528093929190818152602001838380828437600092019190915250505090825250604080516020601f87018190048102820181019092528581529181019190869086908190840183828082843760009201829052509385525050336020808501919091524260409485015285835282905250208151819061042590826106e2565b506020820151600182019061043a90826106e2565b506040828101516002830180546001600160a01b0319166001600160a01b0390921691909117905560609092015160039091015551339082907fb3f41800685cdc4de6480047c707fb16159cf09dc4d05d9bbb6b3bbb1fded948906104a890899089908990899042906107cb565b60405180910390a3949350505050565b6000602082840312156104ca57600080fd5b5035919050565b6000815180845260005b818110156104f7576020818501810151868301820152016104db565b506000602082860101526020601f19601f83011685010191505092915050565b60208152600082516080602084015261053360a08401826104d1565b90506020840151601f1984830301604085015261055082826104d1565b60408601516001600160a01b031660608681019190915290950151608090940193909352509192915050565b60008083601f84011261058e57600080fd5b50813567ffffffffffffffff8111156105a657600080fd5b6020830191508360208285010111156105be57600080fd5b9250929050565b600080600080604085870312156105db57600080fd5b843567ffffffffffffffff808211156105f357600080fd5b6105ff8883890161057c565b9096509450602087013591508082111561061857600080fd5b506106258782880161057c565b95989497509550505050565b600181811c9082168061064557607f821691505b60208210810361066557634e487b7160e01b600052602260045260246000fd5b50919050565b8183823760009101908152919050565b634e487b7160e01b600052604160045260246000fd5b601f8211156106dd576000816000526020600020601f850160051c810160208610156106ba5750805b601f850160051c820191505b818110156106d9578281556001016106c6565b5050505b505050565b815167ffffffffffffffff8111156106fc576106fc61067b565b6107108161070a8454610631565b84610691565b602080601f831160018114610745576000841561072d5750858301515b600019600386901b1c1916600185901b1785556106d9565b600085815260208120601f198616915b8281101561077457888601518255948401946001909101908401610755565b50858210156107925787850151600019600388901b60f8161c191681555b5050505050600190811b01905550565b81835281816020850137506000828201602090810191909152601f909101601f19169091010190565b6060815260006107df6060830187896107a2565b82810360208401526107f28186886107a2565b915050826040830152969550505050505056fea26469706673582212205ba4f6884dea18de06a0067540acbfa87a7942a4fd7db2bc5bf442deb3b7675864736f6c63430008180033","opcodes":"PUSH1 0x80 PUSH1 0x40 MSTORE CALLVALUE DUP1 ISZERO PUSH2 0x10 JUMPI PUSH1 0x0 DUP1 REVERT JUMPDEST POP PUSH2 0x83B DUP1 PUSH2 0x20 PUSH1 0x0 CODECOPY PUSH1 0x0 RETURN INVALID PUSH1 0x80 PUSH1 0x40 MSTORE CALLVALUE DUP1 ISZERO PUSH2 0x10 JUMPI PUSH1 0x0 DUP1 REVERT JUMPDEST POP PUSH1 0x4 CALLDATASIZE LT PUSH2 0x36 JUMPI PUSH1 0x0 CALLDATALOAD PUSH1 0xE0 SHR DUP1 PUSH4 0x3A20E9DF EQ PUSH2 0x3B JUMPI DUP1 PUSH4 0x8FBD0DCF EQ PUSH2 0x64 JUMPI JUMPDEST PUSH1 0x0 DUP1 REVERT JUMPDEST PUSH2 0x4E PUSH2 0x49 CALLDATASIZE PUSH1 0x4 PUSH2 0x4B8 JUMP JUMPDEST PUSH2 0x85 JUMP JUMPDEST PUSH1 0x40 MLOAD PUSH2 0x5B SWAP2 SWAP1 PUSH2 0x517 JUMP JUMPDEST PUSH1 0x40 MLOAD DUP1 SWAP2 SUB SWAP1 RETURN JUMPDEST PUSH2 0x77 PUSH2 0x72 CALLDATASIZE PUSH1 0x4 PUSH2 0x5C5 JUMP JUMPDEST PUSH2 0x272 JUMP JUMPDEST PUSH1 0x40 MLOAD SWAP1 DUP2 MSTORE PUSH1 0x20 ADD PUSH2 0x5B JUMP JUMPDEST PUSH2 0xB9 PUSH1 0x40 MLOAD DUP1 PUSH1 0x80 ADD PUSH1 0x40 MSTORE DUP1 PUSH1 0x60 DUP2 MSTORE PUSH1 0x20 ADD PUSH1 0x60 DUP2 MSTORE PUSH1 0x20 ADD PUSH1 0x0 PUSH1 0x1 PUSH1 0x1 PUSH1 0xA0 SHL SUB AND DUP2 MSTORE PUSH1 0x20 ADD PUSH1 0x0 DUP2 MSTORE POP SWAP1 JUMP JUMPDEST PUSH1 0x0 DUP3 DUP2 MSTORE PUSH1 0x20 DUP2 SWAP1 MSTORE PUSH1 0x40 DUP2 KECCAK256 PUSH1 0x3 ADD SLOAD SWAP1 SUB PUSH2 0x112 JUMPI PUSH1 0x40 MLOAD PUSH3 0x461BCD PUSH1 0xE5 SHL DUP2 MSTORE PUSH1 0x20 PUSH1 0x4 DUP3 ADD MSTORE PUSH1 0x11 PUSH1 0x24 DUP3 ADD MSTORE PUSH17 0x141C9BD91D58DD081B9BDD08199BDD5B99 PUSH1 0x7A SHL PUSH1 0x44 DUP3 ADD MSTORE PUSH1 0x64 ADD JUMPDEST PUSH1 0x40 MLOAD DUP1 SWAP2 SUB SWAP1 REVERT JUMPDEST PUSH1 0x0 DUP3 DUP2 MSTORE PUSH1 0x20 DUP2 SWAP1 MSTORE PUSH1 0x40 SWAP1 DUP2 SWAP1 KECCAK256 DUP2 MLOAD PUSH1 0x80 DUP2 ADD SWAP1 SWAP3 MSTORE DUP1 SLOAD DUP3 SWAP1 DUP3 SWAP1 PUSH2 0x13A SWAP1 PUSH2 0x631 JUMP JUMPDEST DUP1 PUSH1 0x1F ADD PUSH1 0x20 DUP1 SWAP2 DIV MUL PUSH1 0x20 ADD PUSH1 0x40 MLOAD SWAP1 DUP2 ADD PUSH1 0x40 MSTORE DUP1 SWAP3 SWAP2 SWAP1 DUP2 DUP2 MSTORE PUSH1 0x20 ADD DUP3 DUP1 SLOAD PUSH2 0x166 SWAP1 PUSH2 0x631 JUMP JUMPDEST DUP1 ISZERO PUSH2 0x1B3 JUMPI DUP1 PUSH1 0x1F LT PUSH2 0x188 JUMPI PUSH2 0x100 DUP1 DUP4 SLOAD DIV MUL DUP4 MSTORE SWAP2 PUSH1 0x20 ADD SWAP2 PUSH2 0x1B3 JUMP JUMPDEST DUP3 ADD SWAP2 SWAP1 PUSH1 0x0 MSTORE PUSH1 0x20 PUSH1 0x0 KECCAK256 SWAP1 JUMPDEST DUP2 SLOAD DUP2 MSTORE SWAP1 PUSH1 0x1 ADD SWAP1 PUSH1 0x20 ADD DUP1 DUP4 GT PUSH2 0x196 JUMPI DUP3 SWAP1 SUB PUSH1 0x1F AND DUP3 ADD SWAP2 JUMPDEST POP POP POP POP POP DUP2 MSTORE PUSH1 0x20 ADD PUSH1 0x1 DUP3 ADD DUP1 SLOAD PUSH2 0x1CC SWAP1 PUSH2 0x631 JUMP JUMPDEST DUP1 PUSH1 0x1F ADD PUSH1 0x20 DUP1 SWAP2 DIV MUL PUSH1 0x20 ADD PUSH1 0x40 MLOAD SWAP1 DUP2 ADD PUSH1 0x40 MSTORE DUP1 SWAP3 SWAP2 SWAP1 DUP2 DUP2 MSTORE PUSH1 0x20 ADD DUP3 DUP1 SLOAD PUSH2 0x1F8 SWAP1 PUSH2 0x631 JUMP JUMPDEST DUP1 ISZERO PUSH2 0x245 JUMPI DUP1 PUSH1 0x1F LT PUSH2 0x21A JUMPI PUSH2 0x100 DUP1 DUP4 SLOAD DIV MUL DUP4 MSTORE SWAP2 PUSH1 0x20 ADD SWAP2 PUSH2 0x245 JUMP JUMPDEST DUP3 ADD SWAP2 SWAP1 PUSH1 0x0 MSTORE PUSH1 0x20 PUSH1 0x0 KECCAK256 SWAP1 JUMPDEST DUP2 SLOAD DUP2 MSTORE SWAP1 PUSH1 0x1 ADD SWAP1 PUSH1 0x20 ADD DUP1 DUP4 GT PUSH2 0x228 JUMPI DUP3 SWAP1 SUB PUSH1 0x1F AND DUP3 ADD SWAP2 JUMPDEST POP POP POP SWAP2 DUP4 MSTORE POP POP PUSH1 0x2 DUP3 ADD SLOAD PUSH1 0x1 PUSH1 0x1 PUSH1 0xA0 SHL SUB AND PUSH1 0x20 DUP3 ADD MSTORE PUSH1 0x3 SWAP1 SWAP2 ADD SLOAD PUSH1 0x40 SWAP1 SWAP2 ADD MSTORE SWAP3 SWAP2 POP POP JUMP JUMPDEST PUSH1 0x0 DUP4 PUSH2 0x2B8 JUMPI PUSH1 0x40 MLOAD PUSH3 0x461BCD PUSH1 0xE5 SHL DUP2 MSTORE PUSH1 0x20 PUSH1 0x4 DUP3 ADD MSTORE PUSH1 0x14 PUSH1 0x24 DUP3 ADD MSTORE PUSH20 0x115E1D195C9B985B081251081C995C5D5A5C9959 PUSH1 0x62 SHL PUSH1 0x44 DUP3 ADD MSTORE PUSH1 0x64 ADD PUSH2 0x109 JUMP JUMPDEST DUP2 PUSH2 0x2FE JUMPI PUSH1 0x40 MLOAD PUSH3 0x461BCD PUSH1 0xE5 SHL DUP2 MSTORE PUSH1 0x20 PUSH1 0x4 DUP3 ADD MSTORE PUSH1 0x16 PUSH1 0x24 DUP3 ADD MSTORE PUSH22 0x13595D1859185D18481A185CDA081C995C5D5A5C9959 PUSH1 0x52 SHL PUSH1 0x44 DUP3 ADD MSTORE PUSH1 0x64 ADD PUSH2 0x109 JUMP JUMPDEST DUP5 DUP5 PUSH1 0x40 MLOAD PUSH1 0x20 ADD PUSH2 0x311 SWAP3 SWAP2 SWAP1 PUSH2 0x66B JUMP JUMPDEST PUSH1 0x40 DUP1 MLOAD PUSH1 0x1F NOT DUP2 DUP5 SUB ADD DUP2 MSTORE SWAP2 DUP2 MSTORE DUP2 MLOAD PUSH1 0x20 SWAP3 DUP4 ADD KECCAK256 PUSH1 0x0 DUP2 DUP2 MSTORE SWAP3 DUP4 SWAP1 MSTORE SWAP2 KECCAK256 PUSH1 0x3 ADD SLOAD SWAP1 SWAP2 POP ISZERO PUSH2 0x381 JUMPI PUSH1 0x40 MLOAD PUSH3 0x461BCD PUSH1 0xE5 SHL DUP2 MSTORE PUSH1 0x20 PUSH1 0x4 DUP3 ADD MSTORE PUSH1 0x16 PUSH1 0x24 DUP3 ADD MSTORE PUSH22 0x50726F6475637420616C726561647920657869737473 PUSH1 0x50 SHL PUSH1 0x44 DUP3 ADD MSTORE PUSH1 0x64 ADD PUSH2 0x109 JUMP JUMPDEST PUSH1 0x40 MLOAD DUP1 PUSH1 0x80 ADD PUSH1 0x40 MSTORE DUP1 DUP7 DUP7 DUP1 DUP1 PUSH1 0x1F ADD PUSH1 0x20 DUP1 SWAP2 DIV MUL PUSH1 0x20 ADD PUSH1 0x40 MLOAD SWAP1 DUP2 ADD PUSH1 0x40 MSTORE DUP1 SWAP4 SWAP3 SWAP2 SWAP1 DUP2 DUP2 MSTORE PUSH1 0x20 ADD DUP4 DUP4 DUP1 DUP3 DUP5 CALLDATACOPY PUSH1 0x0 SWAP3 ADD SWAP2 SWAP1 SWAP2 MSTORE POP POP POP SWAP1 DUP3 MSTORE POP PUSH1 0x40 DUP1 MLOAD PUSH1 0x20 PUSH1 0x1F DUP8 ADD DUP2 SWAP1 DIV DUP2 MUL DUP3 ADD DUP2 ADD SWAP1 SWAP3 MSTORE DUP6 DUP2 MSTORE SWAP2 DUP2 ADD SWAP2 SWAP1 DUP7 SWAP1 DUP7 SWAP1 DUP2 SWAP1 DUP5 ADD DUP4 DUP3 DUP1 DUP3 DUP5 CALLDATACOPY PUSH1 0x0 SWAP3 ADD DUP3 SWAP1 MSTORE POP SWAP4 DUP6 MSTORE POP POP CALLER PUSH1 0x20 DUP1 DUP6 ADD SWAP2 SWAP1 SWAP2 MSTORE TIMESTAMP PUSH1 0x40 SWAP5 DUP6 ADD MSTORE DUP6 DUP4 MSTORE DUP3 SWAP1 MSTORE POP KECCAK256 DUP2 MLOAD DUP2 SWAP1 PUSH2 0x425 SWAP1 DUP3 PUSH2 0x6E2 JUMP JUMPDEST POP PUSH1 0x20 DUP3 ADD MLOAD PUSH1 0x1 DUP3 ADD SWAP1 PUSH2 0x43A SWAP1 DUP3 PUSH2 0x6E2 JUMP JUMPDEST POP PUSH1 0x40 DUP3 DUP2 ADD MLOAD PUSH1 0x2 DUP4 ADD DUP1 SLOAD PUSH1 0x1 PUSH1 0x1 PUSH1 0xA0 SHL SUB NOT AND PUSH1 0x1 PUSH1 0x1 PUSH1 0xA0 SHL SUB SWAP1 SWAP3 AND SWAP2 SWAP1 SWAP2 OR SWAP1 SSTORE PUSH1 0x60 SWAP1 SWAP3 ADD MLOAD PUSH1 0x3 SWAP1 SWAP2 ADD SSTORE MLOAD CALLER SWAP1 DUP3 SWAP1 PUSH32 0xB3F41800685CDC4DE6480047C707FB16159CF09DC4D05D9BBB6B3BBB1FDED948 SWAP1 PUSH2 0x4A8 SWAP1 DUP10 SWAP1 DUP10 SWAP1 DUP10 SWAP1 DUP10 SWAP1 TIMESTAMP SWAP1 PUSH2 0x7CB JUMP JUMPDEST PUSH1 0x40 MLOAD DUP1 SWAP2 SUB SWAP1 LOG3 SWAP5 SWAP4 POP POP POP POP JUMP JUMPDEST PUSH1 0x0 PUSH1 0x20 DUP3 DUP5 SUB SLT ISZERO PUSH2 0x4CA JUMPI PUSH1 0x0 DUP1 REVERT JUMPDEST POP CALLDATALOAD SWAP2 SWAP1 POP JUMP JUMPDEST PUSH1 0x0 DUP2 MLOAD DUP1 DUP5 MSTORE PUSH1 0x0 JUMPDEST DUP2 DUP2 LT ISZERO PUSH2 0x4F7 JUMPI PUSH1 0x20 DUP2 DUP6 ADD DUP2 ADD MLOAD DUP7 DUP4 ADD DUP3 ADD MSTORE ADD PUSH2 0x4DB JUMP JUMPDEST POP PUSH1 0x0 PUSH1 0x20 DUP3 DUP7 ADD ADD MSTORE PUSH1 0x20 PUSH1 0x1F NOT PUSH1 0x1F DUP4 ADD AND DUP6 ADD ADD SWAP2 POP POP SWAP3 SWAP2 POP POP JUMP JUMPDEST PUSH1 0x20 DUP2 MSTORE PUSH1 0x0 DUP3 MLOAD PUSH1 0x80 PUSH1 0x20 DUP5 ADD MSTORE PUSH2 0x533 PUSH1 0xA0 DUP5 ADD DUP3 PUSH2 0x4D1 JUMP JUMPDEST SWAP1 POP PUSH1 0x20 DUP5 ADD MLOAD PUSH1 0x1F NOT DUP5 DUP4 SUB ADD PUSH1 0x40 DUP6 ADD MSTORE PUSH2 0x550 DUP3 DUP3 PUSH2 0x4D1 JUMP JUMPDEST PUSH1 0x40 DUP7 ADD MLOAD PUSH1 0x1 PUSH1 0x1 PUSH1 0xA0 SHL SUB AND PUSH1 0x60 DUP7 DUP2 ADD SWAP2 SWAP1 SWAP2 MSTORE SWAP1 SWAP6 ADD MLOAD PUSH1 0x80 SWAP1 SWAP5 ADD SWAP4 SWAP1 SWAP4 MSTORE POP SWAP2 SWAP3 SWAP2 POP POP JUMP JUMPDEST PUSH1 0x0 DUP1 DUP4 PUSH1 0x1F DUP5 ADD SLT PUSH2 0x58E JUMPI PUSH1 0x0 DUP1 REVERT JUMPDEST POP DUP2 CALLDATALOAD PUSH8 0xFFFFFFFFFFFFFFFF DUP2 GT ISZERO PUSH2 0x5A6 JUMPI PUSH1 0x0 DUP1 REVERT JUMPDEST PUSH1 0x20 DUP4 ADD SWAP2 POP DUP4 PUSH1 0x20 DUP3 DUP6 ADD ADD GT ISZERO PUSH2 0x5BE JUMPI PUSH1 0x0 DUP1 REVERT JUMPDEST SWAP3 POP SWAP3 SWAP1 POP JUMP JUMPDEST PUSH1 0x0 DUP1 PUSH1 0x0 DUP1 PUSH1 0x40 DUP6 DUP8 SUB SLT ISZERO PUSH2 0x5DB JUMPI PUSH1 0x0 DUP1 REVERT JUMPDEST DUP5 CALLDATALOAD PUSH8 0xFFFFFFFFFFFFFFFF DUP1 DUP3 GT ISZERO PUSH2 0x5F3 JUMPI PUSH1 0x0 DUP1 REVERT JUMPDEST PUSH2 0x5FF DUP9 DUP4 DUP10 ADD PUSH2 0x57C JUMP JUMPDEST SWAP1 SWAP7 POP SWAP5 POP PUSH1 0x20 DUP8 ADD CALLDATALOAD SWAP2 POP DUP1 DUP3 GT ISZERO PUSH2 0x618 JUMPI PUSH1 0x0 DUP1 REVERT JUMPDEST POP PUSH2 0x625 DUP8 DUP3 DUP9 ADD PUSH2 0x57C JUMP JUMPDEST SWAP6 SWAP9 SWAP5 SWAP8 POP SWAP6 POP POP POP POP JUMP JUMPDEST PUSH1 0x1 DUP2 DUP2 SHR SWAP1 DUP3 AND DUP1 PUSH2 0x645 JUMPI PUSH1 0x7F DUP3 AND SWAP2 POP JUMPDEST PUSH1 0x20 DUP3 LT DUP2 SUB PUSH2 0x665 JUMPI PUSH4 0x4E487B71 PUSH1 0xE0 SHL PUSH1 0x0 MSTORE PUSH1 0x22 PUSH1 0x4 MSTORE PUSH1 0x24 PUSH1 0x0 REVERT JUMPDEST POP SWAP2 SWAP1 POP JUMP JUMPDEST DUP2 DUP4 DUP3 CALLDATACOPY PUSH1 0x0 SWAP2 ADD SWAP1 DUP2 MSTORE SWAP2 SWAP1 POP JUMP JUMPDEST PUSH4 0x4E487B71 PUSH1 0xE0 SHL PUSH1 0x0 MSTORE PUSH1 0x41 PUSH1 0x4 MSTORE PUSH1 0x24 PUSH1 0x0 REVERT JUMPDEST PUSH1 0x1F DUP3 GT ISZERO PUSH2 0x6DD JUMPI PUSH1 0x0 DUP2 PUSH1 0x0 MSTORE PUSH1 0x20 PUSH1 0x0 KECCAK256 PUSH1 0x1F DUP6 ADD PUSH1 0x5 SHR DUP2 ADD PUSH1 0x20 DUP7 LT ISZERO PUSH2 0x6BA JUMPI POP DUP1 JUMPDEST PUSH1 0x1F DUP6 ADD PUSH1 0x5 SHR DUP3 ADD SWAP2 POP JUMPDEST DUP2 DUP2 LT ISZERO PUSH2 0x6D9 JUMPI DUP3 DUP2 SSTORE PUSH1 0x1 ADD PUSH2 0x6C6 JUMP JUMPDEST POP POP POP JUMPDEST POP POP POP JUMP JUMPDEST DUP2 MLOAD PUSH8 0xFFFFFFFFFFFFFFFF DUP2 GT ISZERO PUSH2 0x6FC JUMPI PUSH2 0x6FC PUSH2 0x67B JUMP JUMPDEST PUSH2 0x710 DUP2 PUSH2 0x70A DUP5 SLOAD PUSH2 0x631 JUMP JUMPDEST DUP5 PUSH2 0x691 JUMP JUMPDEST PUSH1 0x20 DUP1 PUSH1 0x1F DUP4 GT PUSH1 0x1 DUP2 EQ PUSH2 0x745 JUMPI PUSH1 0x0 DUP5 ISZERO PUSH2 0x72D JUMPI POP DUP6 DUP4 ADD MLOAD JUMPDEST PUSH1 0x0 NOT PUSH1 0x3 DUP7 SWAP1 SHL SHR NOT AND PUSH1 0x1 DUP6 SWAP1 SHL OR DUP6 SSTORE PUSH2 0x6D9 JUMP JUMPDEST PUSH1 0x0 DUP6 DUP2 MSTORE PUSH1 0x20 DUP2 KECCAK256 PUSH1 0x1F NOT DUP7 AND SWAP2 JUMPDEST DUP3 DUP2 LT ISZERO PUSH2 0x774 JUMPI DUP9 DUP7 ADD MLOAD DUP3 SSTORE SWAP5 DUP5 ADD SWAP5 PUSH1 0x1 SWAP1 SWAP2 ADD SWAP1 DUP5 ADD PUSH2 0x755 JUMP JUMPDEST POP DUP6 DUP3 LT ISZERO PUSH2 0x792 JUMPI DUP8 DUP6 ADD MLOAD PUSH1 0x0 NOT PUSH1 0x3 DUP9 SWAP1 SHL PUSH1 0xF8 AND SHR NOT AND DUP2 SSTORE JUMPDEST POP POP POP POP POP PUSH1 0x1 SWAP1 DUP2 SHL ADD SWAP1 SSTORE POP JUMP JUMPDEST DUP2 DUP4 MSTORE DUP2 DUP2 PUSH1 0x20 DUP6 ADD CALLDATACOPY POP PUSH1 0x0 DUP3 DUP3 ADD PUSH1 0x20 SWAP1 DUP2 ADD SWAP2 SWAP1 SWAP2 MSTORE PUSH1 0x1F SWAP1 SWAP2 ADD PUSH1 0x1F NOT AND SWAP1 SWAP2 ADD ADD SWAP1 JUMP JUMPDEST PUSH1 0x60 DUP2 MSTORE PUSH1 0x0 PUSH2 0x7DF PUSH1 0x60 DUP4 ADD DUP8 DUP10 PUSH2 0x7A2 JUMP JUMPDEST DUP3 DUP2 SUB PUSH1 0x20 DUP5 ADD MSTORE PUSH2 0x7F2 DUP2 DUP7 DUP9 PUSH2 0x7A2 JUMP JUMPDEST SWAP2 POP POP DUP3 PUSH1 0x40 DUP4 ADD MSTORE SWAP7 SWAP6 POP POP POP POP POP POP JUMP INVALID LOG2 PUSH5 0x6970667358 0x22 SLT KECCAK256 JUMPDEST LOG4 0xF6 DUP9 0x4D 0xEA XOR 0xDE MOD LOG0 MOD PUSH22 0x40ACBFA87A7942A4FD7DB2BC5BF442DEB3B767586473 PUSH16 0x6C634300081800330000000000000000 "},"methodIdentifiers":{"getProduct(bytes32)":"3a20e9df","registerProduct(string,string)":"8fbd0dcf"}}}}}