{
  "_format": "hh-sol-artifact-1",
  "contractName": "SimpleAccess",
  "sourceName": "contracts/SimpleAccess.sol",
  "abi": [
    {
      "inputs": [],
      "stateMutability": "nonpayable",
      "type": "constructor"
    },
    {
      "anonymous": false,
      "inputs": [
        {
          "indexed": true,
          "internalType": "address",
          "name": "admin",
          "type": "address"
        },
        {
          "indexed": false,
          "internalType": "bool",
          "name": "enabled",
          "type": "bool"
        }
      ],
      "name": "AdminUpdated",
      "type": "event"
    },
    {
      "anonymous": false,
      "inputs": [
        {
          "indexed": true,
          "internalType": "address",
          "name": "previousOwner",
          "type": "address"
        },
        {
          "indexed": true,
          "internalType": "address",
          "name": "newOwner",
          "type": "address"
        }
      ],
      "name": "OwnershipTransferred",
      "type": "event"
    },
    {
      "inputs": [
        {
          "internalType": "address",
          "name": "",
          "type": "address"
        }
      ],
      "name": "admins",
      "outputs": [
        {
          "internalType": "bool",
          "name": "",
          "type": "bool"
        }
      ],
      "stateMutability": "view",
      "type": "function"
    },
    {
      "inputs": [],
      "name": "owner",
      "outputs": [
        {
          "internalType": "address",
          "name": "",
          "type": "address"
        }
      ],
      "stateMutability": "view",
      "type": "function"
    },
    {
      "inputs": [
        {
          "internalType": "address",
          "name": "admin",
          "type": "address"
        },
        {
          "internalType": "bool",
          "name": "enabled",
          "type": "bool"
        }
      ],
      "name": "setAdmin",
      "outputs": [],
      "stateMutability": "nonpayable",
      "type": "function"
    },
    {
      "inputs": [
        {
          "internalType": "address",
          "name": "newOwner",
          "type": "address"
        }
      ],
      "name": "transferOwnership",
      "outputs": [],
      "stateMutability": "nonpayable",
      "type": "function"
    }
  ],
  "bytecode": "0x608060405234801561001057600080fd5b50600080546001600160a01b0319163390811782556040519091907f8be0079c531659141344cd1fd0a4f28419497f9722a3daafe3b4186f6b6457e0908290a361035a8061005f6000396000f3fe608060405234801561001057600080fd5b506004361061004c5760003560e01c8063429b62e5146100515780634b0bddd2146100895780638da5cb5b1461009e578063f2fde38b146100c9575b600080fd5b61007461005f3660046102c6565b60016020526000908152604090205460ff1681565b60405190151581526020015b60405180910390f35b61009c6100973660046102e8565b6100dc565b005b6000546100b1906001600160a01b031681565b6040516001600160a01b039091168152602001610080565b61009c6100d73660046102c6565b6101cd565b6000546001600160a01b031633146101285760405162461bcd60e51b815260206004820152600a6024820152694f776e6572206f6e6c7960b01b60448201526064015b60405180910390fd5b6001600160a01b03821661016e5760405162461bcd60e51b815260206004820152600d60248201526c24b73b30b634b21030b236b4b760991b604482015260640161011f565b6001600160a01b038216600081815260016020908152604091829020805460ff191685151590811790915591519182527f235bc17e7930760029e9f4d860a2a8089976de5b381cf8380fc11c1d88a11133910160405180910390a25050565b6000546001600160a01b031633146102145760405162461bcd60e51b815260206004820152600a6024820152694f776e6572206f6e6c7960b01b604482015260640161011f565b6001600160a01b03811661025a5760405162461bcd60e51b815260206004820152600d60248201526c24b73b30b634b21037bbb732b960991b604482015260640161011f565b600080546001600160a01b038381166001600160a01b0319831681178455604051919092169283917f8be0079c531659141344cd1fd0a4f28419497f9722a3daafe3b4186f6b6457e09190a35050565b80356001600160a01b03811681146102c157600080fd5b919050565b6000602082840312156102d857600080fd5b6102e1826102aa565b9392505050565b600080604083850312156102fb57600080fd5b610304836102aa565b91506020830135801515811461031957600080fd5b80915050925092905056fea2646970667358221220437be73605e995777657d069f5998064e48b6d03a4ebeda36c9993db06f142c164736f6c63430008180033",
  "linkReferences": {},
  "deployedLinkReferences": {}
}