{
  "_format": "hh-sol-artifact-1",
  "contractName": "EscrowVault",
  "sourceName": "contracts/escrow/EscrowVault.sol",
  "abi": [
    {
      "inputs": [
        {
          "internalType": "address",
          "name": "manager_",
          "type": "address"
        }
      ],
      "stateMutability": "nonpayable",
      "type": "constructor"
    },
    {
      "inputs": [],
      "name": "AlreadyExists",
      "type": "error"
    },
    {
      "inputs": [],
      "name": "EscrowExpired",
      "type": "error"
    },
    {
      "inputs": [],
      "name": "InvalidAddress",
      "type": "error"
    },
    {
      "inputs": [],
      "name": "InvalidAmount",
      "type": "error"
    },
    {
      "inputs": [],
      "name": "InvalidDeadline",
      "type": "error"
    },
    {
      "inputs": [],
      "name": "InvalidPaymentToken",
      "type": "error"
    },
    {
      "inputs": [],
      "name": "InvalidStatus",
      "type": "error"
    },
    {
      "inputs": [],
      "name": "NotEscrowParty",
      "type": "error"
    },
    {
      "inputs": [],
      "name": "NotFound",
      "type": "error"
    },
    {
      "inputs": [],
      "name": "ProductInactive",
      "type": "error"
    },
    {
      "inputs": [],
      "name": "TransferFailed",
      "type": "error"
    },
    {
      "inputs": [],
      "name": "Unauthorized",
      "type": "error"
    },
    {
      "inputs": [
        {
          "internalType": "bytes32",
          "name": "escrowId",
          "type": "bytes32"
        }
      ],
      "name": "depositNative",
      "outputs": [],
      "stateMutability": "payable",
      "type": "function"
    },
    {
      "inputs": [
        {
          "internalType": "bytes32",
          "name": "",
          "type": "bytes32"
        },
        {
          "internalType": "address",
          "name": "",
          "type": "address"
        }
      ],
      "name": "escrowBalances",
      "outputs": [
        {
          "internalType": "uint256",
          "name": "",
          "type": "uint256"
        }
      ],
      "stateMutability": "view",
      "type": "function"
    },
    {
      "inputs": [],
      "name": "manager",
      "outputs": [
        {
          "internalType": "address",
          "name": "",
          "type": "address"
        }
      ],
      "stateMutability": "view",
      "type": "function"
    },
    {
      "inputs": [
        {
          "internalType": "bytes32",
          "name": "escrowId",
          "type": "bytes32"
        },
        {
          "internalType": "address",
          "name": "token",
          "type": "address"
        },
        {
          "internalType": "address",
          "name": "to",
          "type": "address"
        },
        {
          "internalType": "uint256",
          "name": "amount",
          "type": "uint256"
        }
      ],
      "name": "payout",
      "outputs": [],
      "stateMutability": "nonpayable",
      "type": "function"
    },
    {
      "inputs": [
        {
          "internalType": "bytes32",
          "name": "escrowId",
          "type": "bytes32"
        },
        {
          "internalType": "address",
          "name": "token",
          "type": "address"
        },
        {
          "internalType": "uint256",
          "name": "amount",
          "type": "uint256"
        }
      ],
      "name": "recordTokenDeposit",
      "outputs": [],
      "stateMutability": "nonpayable",
      "type": "function"
    }
  ],
  "bytecode": "0x60a060405234801561001057600080fd5b506040516106ce3803806106ce83398101604081905261002f91610067565b6001600160a01b0381166100565760405163e6c4247b60e01b815260040160405180910390fd5b6001600160a01b0316608052610097565b60006020828403121561007957600080fd5b81516001600160a01b038116811461009057600080fd5b9392505050565b6080516106086100c66000396000818160b601528181610143015281816101f7015261040001526106086000f3fe60806040526004361061004a5760003560e01c80632a79301c1461004f578063401047631461007157806342ef5fbb14610091578063481c6a75146100a4578063c754e91f146100f5575b600080fd5b34801561005b57600080fd5b5061006f61006a3660046104a9565b610138565b005b34801561007d57600080fd5b5061006f61008c3660046104de565b6101ec565b61006f61009f366004610522565b6103f5565b3480156100b057600080fd5b506100d87f000000000000000000000000000000000000000000000000000000000000000081565b6040516001600160a01b0390911681526020015b60405180910390f35b34801561010157600080fd5b5061012a61011036600461053b565b600060208181529281526040808220909352908152205481565b6040519081526020016100ec565b336001600160a01b037f00000000000000000000000000000000000000000000000000000000000000001614610180576040516282b42960e81b815260040160405180910390fd5b6001600160a01b0382161580610194575080155b156101b25760405163162908e360e11b815260040160405180910390fd5b6000838152602081815260408083206001600160a01b0386168452909152812080548392906101e290849061057d565b9091555050505050565b336001600160a01b037f00000000000000000000000000000000000000000000000000000000000000001614610234576040516282b42960e81b815260040160405180910390fd5b6001600160a01b0382161580610248575080155b156102665760405163162908e360e11b815260040160405180910390fd5b6000848152602081815260408083206001600160a01b0387168452909152902054818110156102a85760405163162908e360e11b815260040160405180910390fd5b6102b28282610596565b6000868152602081815260408083206001600160a01b038916808552925290912091909155610355576000836001600160a01b03168360405160006040518083038185875af1925050503d8060008114610328576040519150601f19603f3d011682016040523d82523d6000602084013e61032d565b606091505b505090508061034f576040516312171d8360e31b815260040160405180910390fd5b506103ee565b60405163a9059cbb60e01b81526001600160a01b038481166004830152602482018490526000919086169063a9059cbb906044016020604051808303816000875af11580156103a8573d6000803e3d6000fd5b505050506040513d601f19601f820116820180604052508101906103cc91906105a9565b9050806103ec576040516312171d8360e31b815260040160405180910390fd5b505b5050505050565b336001600160a01b037f0000000000000000000000000000000000000000000000000000000000000000161461043d576040516282b42960e81b815260040160405180910390fd5b3460000361045e5760405163162908e360e11b815260040160405180910390fd5b6000818152602081815260408083208380529091528120805434929061048590849061057d565b909155505050565b80356001600160a01b03811681146104a457600080fd5b919050565b6000806000606084860312156104be57600080fd5b833592506104ce6020850161048d565b9150604084013590509250925092565b600080600080608085870312156104f457600080fd5b843593506105046020860161048d565b92506105126040860161048d565b9396929550929360600135925050565b60006020828403121561053457600080fd5b5035919050565b6000806040838503121561054e57600080fd5b8235915061055e6020840161048d565b90509250929050565b634e487b7160e01b600052601160045260246000fd5b8082018082111561059057610590610567565b92915050565b8181038181111561059057610590610567565b6000602082840312156105bb57600080fd5b815180151581146105cb57600080fd5b939250505056fea264697066735822122069643792d1c261bed1fc4c2afda6ade1ad9864121141ffce9eda8d5f7c6bcd2d64736f6c63430008180033",
  "linkReferences": {},
  "deployedLinkReferences": {}
}